:020000040800F2
:1040000078A3002001430008094300080B4300087F
:104010000D4300080F430008114300080000000092
:104020000000000000000000000000003D43000808
:104030001543000800000000D5430008E5430008D0
:104040001B4300081B4300081B4300081B430008D8
:104050001B4300081B4300081B4300081B430008C8
:104060001B4300081B4300081B4300081B430008B8
:104070001B4300081B4300081B4300081B430008A8
:104080001B4300081B4300081B4300081B43000898
:104090001B4300081B4300081B4300081B43000888
:1040A0001B4300081B4300081B4300081B43000878
:1040B0001B4300081B4300081B4300081B43000868
:1040C0001B4300081B4300081B4300081B43000858
:1040D0001B4300081B43000829750008D175000820
:1040E0001B4300081B4300081B4300081B43000838
:1040F0001B4300081B4300081B4300081B43000828
:104100001B4300081B4300081B4300081B43000817
:104110001B430008817400081B4300081B43000870
:104120001B4300081B4300081B4300081B430008F7
:104130001B4300081B4300081B4300081B430008E7
:104140001B4300081B4300081B4300081B430008D7
:104150001B4300081B4300081B4300081B430008C7
:104160001B4300081B4300081B4300081B430008B7
:104170001B4300081B4300081B4300081B430008A7
:104180001B4300081B43000800F002F800F0A4F8ED
:104190000AA090E8000C82448344AAF10107DA45A2
:1041A00001D100F099F8AFF2090EBAE80F0013F050
:1041B000010F18BFFB1A43F001031847D46D00002C
:1041C000F46D00000A4410F8014B14F00F0508BF0D
:1041D00010F8015B240908BF10F8014B6D1E05D0D3
:1041E00010F8013B6D1E01F8013BF9D1641E03D0AC
:1041F000641E01F8015BFBD19142E4D370470000DB
:104200000023002400250026103A28BF78C1FBD8DF
:10421000520728BF30C148BF0B6070476E2900F0BD
:104220004382702900F08583662906F07E85652922
:1042300006F07B85672906F078856129AFF3008059
:1042400003681B0A28BF41F08001692900F0F08152
:10425000642900F0ED81752900F0EA816F2900F0F2
:104260001283782900F05183E92900F0AD82E42916
:1042700000F0AA82F52900F0A782EF2900F00F8351
:10428000F82900F050830368DB0928BF41F0800162
:10429000632900F00B87732900F01087E32900F0F1
:1042A0001B87F32900F02087002070471FB506F018
:1042B00037FD00F08FFF04000020002106F01AFDFA
:1042C000401C60600020002106F0FEFCE06000F071
:1042D0003BF91FBD10B510BD00F04EFF114603B4F1
:1042E00006F0C2FC03BCFFF7E1FF06F0BFFC01F0E3
:1042F00025F803B4FFF7EEFF03BC00F037FF000022
:104300000948804709480047FEE7FEE7FEE7FEE769
:10431000FEE7FEE7FEE7FEE7FEE7FEE704480549A5
:10432000034A054B704700002574000889410008C6
:10433000789F002078A30020789F00201EF0040FB3
:104340000CBFEFF30880EFF30980816911F8021CBC
:1043500091BB01B590E80F10E047BDE800508CE834
:104360000300244B93E80600914208BF704741B90F
:104370001EF0100F10D12049086820F001000860DD
:104380000AE02CE9F00F1EF0100F08BF2CED108A88
:10439000C1F838C081F822E01A6092F82210906BC0
:1043A00061F0FF0E1EF0100F08BFB0EC108AB0E8ED
:1043B000F00F80F309887047104A13689942FAD8C1
:1043C00001B552F821C00FC8E047BDE80050CCF855
:1043D0000000704701B501F0B5FBBDE80140EFF307
:1043E000098CBEE701B501F01BFEBDE80140EFF30B
:1043F000098CB6E78813002034EF00E090AD000888
:104400001CB50C46064B7B4469460090204600F0E4
:1044100064F904460020694600F072F920461CBD8C
:10442000F7020000032A40F2308010F0030C00F085
:10443000158011F8013BBCF1020F624498BF11F8DE
:1044400001CB00F8013B38BF11F8013BA2F1040297
:1044500098BF00F801CB38BF00F8013B11F003030F
:1044600000F03D83083AC0F0088051F8043B083A58
:1044700051F804CBA0E80810F5E7121D5CBF51F815
:10448000043B40F8043BAFF30080D20724BF11F88F
:10449000013B11F801CB48BF11F8012B24BF00F8F4
:1044A000013B00F801CB48BF00F8012B70474FF0EB
:1044B00000020429C0F0128010F0030C00F01B80F1
:1044C000CCF1040CBCF1020F18BF00F8012BA8BFFF
:1044D00020F8022BA1EB0C0100F00DB85FEAC17CC3
:1044E00024BF00F8012B00F8012B48BF00F8012B76
:1044F00070474FF0000200B51346944696462039A7
:1045000022BFA0E80C50A0E80C50B1F12001BFF48C
:10451000F7AF090728BFA0E80C5048BF0CC05DF8F2
:1045200004EB890028BF40F8042B08BF704748BF40
:1045300020F8022B11F0804F18BF00F8012B7047B4
:10454000704770477047000070B5064C7C44064DBC
:104550007D4403E0206820448047241DAC42F9D10B
:1045600070BD00008C6B0000946B000070B50446B9
:1045700085690068C10601D5302600E02026C00705
:1045800007D070BDD4E9012130469047206A401C15
:1045900020626D1EF6D570BD70B504468569007841
:1045A000C00707D170BDD4E9012120209047206ABF
:1045B000401C20626D1EF6D570BD09684A0501D504
:1045C00040B27047C905FCD500B2704709684A057A
:1045D00001D5C0B27047C905FCD580B2704770B52F
:1045E0000C460546012A05D02878800600D5EA69E0
:1045F000002302E0012305E05B1C934202D2E05C51
:104600000028F9D1A869E618C01AA861286A1844D8
:1046100028622846FFF7AAFF04E0D5E9012114F833
:10462000010B9047B442F8D32846FFF7B5FF70BDA1
:104630002DE9F0410646002410687529314616A57B
:1046400010D0FFF7BAFF002802DA404213A507E0B6
:1046500031688A0701D512A502E0490704D511A5E2
:10466000012401E0FFF7B2FF00210A2206F124072E
:1046700009E0B0FBF2FCB0FBF2F302FB1C003030AF
:1046800078541846491C0028F3D123462A46304660
:10469000BDE8F04100F09ABA000000002D000000D3
:1046A0002B0000002000000011680268006A53051A
:1046B00001D508700AE0D30501D5088006E013068D
:1046C00003D5C217C1E9000200E00860012070476D
:1046D00001694A1C02610878704700B58FB0CDE9C6
:1046E00001310021059105497944CDE903101146B6
:1046F000684600F029F90FB000BD0000E5FFFFFF9C
:104700000A6802F8010B0A60704700002DE9FF5F9C
:1047100015468A460446DFF8AC80F8440027D8E9FD
:1047200000103E46CDE9001010E03AF816106A4637
:1047300002A800F0DDFC411C07D02178890603D5D2
:10474000E269391891420DD80744761C207880061A
:1047500002D5E069B84205DDAE42E6DB3AF8160064
:104760000028E2D1A069C01BA0612046FFF7FEFE31
:10477000D8E90010CDE90010002017E03AF8181031
:104780006A4602A800F0B4FCB0F1FF3F81460BD0AE
:1047900000250DF1080B05E0D4E901211BF8050007
:1047A00090476D1C4D45F7D308F10100B04280469B
:1047B000E4DB206A384420622046FFF7EDFEBDE8C6
:1047C000FF9F0000766600002DE9F0418046D21D73
:1047D00022F007020025D2E90002F52915A614D01F
:1047E000011E72F1000106DA0023D0EB030063EB37
:1047F000020211A608E0D8F800108B0701D50FA619
:1048000002E0490701D50EA601251146002408F152
:10481000240704E000F095F930323A55641C50EA60
:104820000102F7D12B46324621464046BDE8F04111
:1048300000F0CCB9000000002D0000002B000000AB
:104840002000000030B4002100F1240408E002F050
:104850000705D208303542EA4372DB086554491C2B
:1048600052EA0305F3D10468002310A2250707D5F7
:10487000A40600D421B1C46901230DA2641EC46141
:1048800030BC00F0A3B910B5044621461068FFF70C
:104890009DFE02462046BDE810400023D2E7D21D0F
:1048A00022F00701D1E90023CCE70000000000005E
:1048B00030000000F0B40D460188090502D5214CF6
:1048C0007C4402E01F4C7C440E34002100F124069D
:1048D00008E002F00F071209E75D42EA03721B09C4
:1048E0007754491C52EA0307F3D1027800231207D8
:1048F00004D5702D06D009B1022311342246F0BC34
:1049000000F064B901231034F8E770B504460D4691
:1049100021461068FFF75AFE024629462046BDE8A8
:1049200070400023C6E7D21D22F00703D3E900231D
:10493000C0E70368126843F0200303600823C361E3
:104940000023B7E7D86400002DE9F05F89460446EC
:104950004FF0000ADFF874B1FB44C0F820A02046F5
:10496000E1688847002874D0252806D0D4E90121C1
:104970009047206A401C2062F1E700265F462046EF
:10498000E16888472028054607DB312D05D27819D4
:1049900010F8200C08B10643F1E7B00701D526F066
:1049A0000406C4F81CA00027C4F818A02A2D09D0BA
:1049B000284606F025F938B304EB8708303DC8F8DF
:1049C000185019E059F8041B204604EB8702916146
:1049D000E1688847012F054618D1E069002820DAF0
:1049E00026F020061DE0D8F8180000EB800005EB4B
:1049F00040003038C8F818002046E168884705466E
:104A000006F0FEF80028EED1012F0AD02E2D08D195
:104A10002046E16888477F1C0546022F46F02006A5
:104A2000C4DBA069002803DA404246F00106A06119
:104A3000F00701D026F010066C2D0BD0682D09D0A0
:104A40004C2D39D06A2D35D0742D35D07A2D33D0F8
:104A500016E038E0E1682F4620468847B842054610
:104A600009D16C2F26D04FF48060E16806432046C0
:104A70008847054604E06C2F1AD04FF48070064337
:104A80000DB3A5F14100192802D8203546F400667F
:104A90004A462946204626604E46FFF7BFFB80B1B6
:104AA00001280BD0F61D26F0070000F1080956E793
:104AB0004020E4E78020D8E70020D6E706F104098B
:104AC0004DE7284652E7206ABDE8F09F6864000081
:104AD00010B500F033FBBDE8104000F029BB10B565
:104AE000203AC0F00B80B1E81850203AA0E81850E6
:104AF000B1E81850A0E81850BFF4F5AF5FEA027CA7
:104B000024BFB1E81850A0E8185044BF18C918C015
:104B1000BDE810405FEA827C24BF51F8043B40F8B6
:104B2000043B08BF7047D20728BF31F8023B48BF9B
:104B300011F8012B28BF20F8023B48BF00F8012BD9
:104B4000704730B5B0F10A024FEA900E71F10003E0
:104B50004EEA817EB0EB0E0061EB91014FEA101E30
:104B60004EEA017E10EB0E0041EB11114FEA102EC0
:104B70004EEA016E10EB0E0041EB11214FEA104E90
:104B80004EEA014E10EB0E0041EB1141401841F18D
:104B900000014FEAD00040EA41704FEAD10110EB2A
:104BA00080054FEA810444EA907444EB01046D19D6
:104BB00044EB0404521BA3414FF0000348BF0A32E8
:104BC00000D530BD401C41F1000130BD2DE9F0475A
:104BD0000D4699469246044600F12408016888066D
:104BE00004D5E06921F01001216000E00120A84215
:104BF00001DD471B00E00027A1697A1902EB0900DB
:104C0000081AA0612078C00602D42046FFF7AEFC47
:104C1000002608E0D4E901211AF806009047206A2E
:104C2000401C761C20624E45F4DB2078C0060AD575
:104C30002046FFF79BFC06E0D4E901213020904795
:104C4000206A401C2062381EA7F10107F4DC07E04F
:104C5000D4E9012118F805009047206A401C206221
:104C6000281EA5F10105F3DC2046FFF795FC20780E
:104C7000000602D50220BDE8F0870120FBE770475F
:104C80002DE9FF4F0C461E464FF0FF378BB0D2E99F
:104C90000001DDF860800A908A46C1F30A5505B923
:104CA0003D46002108464FF00000BAF1000F00F425
:104CB000400005DA00EB80004FF4400101EA5000AB
:104CC0004FEA9059B9F1010F00DDB9460A9850EA50
:104CD0004A000ED044F61050A5F2FF3545432F147C
:104CE000B8F1000F1ED07542291E1EDDC9F1000269
:104CF0001CE0B8F1010F4FF0000001D0302103E0BB
:104D0000F24305E02154401CB042FBDB3046002258
:104D1000002121540B99C1F80880C1E900200FB08F
:104D2000BDE8F08FBD1B6D1CDEE74A4600DA694224
:104D300006A800F095FA06AB93E8070003AB83E8FA
:104D4000070050460A9901F057FF8DE80700A0F5CB
:104D500000501F3800900398002D09DD42F21F011A
:104D60004A46084403A90390684602F0B6F908E0F1
:104D7000A0F500504A461F3803A90390684602F088
:104D8000C0F98DE807000004000C03D04FF0FF309D
:104D9000410800E01046B8F1000F03D00022009255
:104DA00015461EE0751E05D4FFF7CBFE3032625566
:104DB0006D1EF9D5B3460122084302D000227F1CA4
:104DC00004E02078302801D100227F1E002A0997B4
:104DD00086D01DE0112D07DAFFF7B3FE30326255A1
:104DE0006D1C50EA0102F5D1084302D00098C8B109
:104DF0000EE00021681E05E0235C625C63542254CF
:104E0000401E491C8142F7DBAB46A81B401E09909F
:104E1000002004F80B000B98099AC0F80880C0E93C
:104E2000002B7CE711264FF0000859E72DE9F04FE1
:104E300088460446D21D22F0070191B0D1E9000155
:104E4000CDE90A0105F094FE02460B98C00F01D08F
:104E50002D2007E02068810701D52B2002E02021CA
:104E600001EAC000032A099001D0072A05DB0346A6
:104E70004146204600F0B4F90BE12078800601D5C8
:104E8000E06900E00620B8F1650F814606D0B8F170
:104E9000660F18D0B8F1670F70D131E00020B9F17A
:104EA000110F009001DB112301E009F101030AAAAF
:104EB00001A90CA8FFF7E4FEDDE90C70002609F15A
:104EC0000105834647E001204B4600904FF0004724
:104ED0000AAA01A90CA8FFF7D3FEDDE90DB00C99D1
:104EE0005D46002610B909F101000D18B9EB050067
:104EF00003D4C0F1FF3609F10105A5EB09002BE051
:104F0000B9F1010F01DA4FF001090020B9F1110FD9
:104F10000090484601DD112300E003460AAA01A9DA
:104F20000CA8FFF7ADFEDDE90C704D460026834668
:104F3000207800070AD4AB4500DA5D4601A8012DB0
:104F400004DD411911F8011C302907D04F4502DA60
:104F500017F1040F04DA012082460FE06D1EEEE720
:104F6000002F02DCED1B3E4403E0781CA84200DD6C
:104F70007D1CB81B00F1010A4FF0004720780007A4
:104F800003D4AA4501DB4FF0FF3A0021B7F1004FEF
:104F90000DF143088DF8431024D002202B23002F5D
:104FA00001DA7F422D230A21021EA0F1010000DC5C
:104FB0005FB197FBF1FC97FBF1F201FB1C7C1746FC
:104FC0000CF1300C08F801CDEEE7A8F101000370F8
:104FD0002188090501D5452100E06521A0F10108DE
:104FE00000F8011C09980FA9A1EB0807FF1D00B1EB
:104FF0000120411901EBEA70A1693844081A401EEA
:10500000A0612078C00602D42046FFF7AFFA0998C5
:1050100028B1D4E901219047206A401C2062207801
:10502000C00622D52046FFF7A1FA1EE0002E04DBC1
:10503000B34502DD01A8805D00E03020D4E9012104
:105040009047206A401C2062761CAAF101005FEAAA
:10505000000A0AD100F0BEF8C0680168405CD4E9DB
:1050600001219047206A401C2062281EA5F10105FD
:10507000DCDC07E0D4E9012118F8010B9047206A35
:10508000401C2062381EA7F10107F3DC2046FFF721
:1050900083FA032011B043E610B5436913B1AFF3AF
:1050A000008001E0FFF79BFA012010BD127800F1AB
:1050B00024010A7000224A700122EDE711684FF0C6
:1050C000FF32E9E710B5436913B1AFF3008001E0A7
:1050D000FFF71CFB012010BD128800F1240182841F
:1050E0000022C2840122EDE711684FF0FF32E9E7A8
:1050F00070B516460C46054600F064F8036893F850
:105100000101012806D0FF2C0FD8185D68B10120DD
:105110002C7070BDD3F807013246214603F2071305
:1051200003442846BDE8704018474FF0FF3070BD7B
:10513000002801D000F01AB87047000010B5002117
:1051400002A000F004F9012010BD000053494750AF
:1051500056464E3A205075726520766972747561B4
:105160006C20666E2063616C6C65640001491820D8
:10517000ABBEFEE726000200754600F009F9AE4618
:1051800005006946534620F00700854618B020B553
:10519000FFF7C4F8BDE820404FF000064FF00007CD
:1051A0004FF000084FF0000B21F00701AC46ACE8CF
:1051B000C009ACE8C009ACE8C009ACE8C0098D463C
:1051C0007047000010B500F005F8001D10BD00BFCD
:1051D000255B000010B500F0DBF8203010BD0000AA
:1051E0002DE9F0411F46044603260168072A01F411
:1051F000006004DB08B116A505E016A503E008B1C0
:1052000015A500E015A521F010002060A069C01EC2
:10521000A0610FB1401EA0612046FFF7A7F94FB172
:10522000D4E9012138469047206A401C2062C01C06
:10523000206206E0206AFAE7D4E9012115F8010BA3
:105240009047761EF8D22046FFF7A6F9BDE8F08118
:105250004E414E006E616E00494E4600696E66001A
:105260002DE9F047814616468AB0334878440DC888
:105270008DE80D0030487844801C03AC0DC884E8EC
:105280000D0041F69B300844372190FBF1F290FB72
:10529000F1F5A5F1800501FB12041B3C02D5644227
:1052A000012000E00020DFF890A080460027FA44AB
:1052B000AAF1BE0A0DE0E00709D03246684607EBC6
:1052C00047010AEB810101F01CFF8DE80700641023
:1052D0007F1C002CEFD1184F7F44AC3F18E0E8074B
:1052E00014D007EB04100DF1180A90E80E008AE8BC
:1052F0000E00C068F04201D198190890324606A904
:1053000003A801F0FEFE03AB83E807006D10641CE8
:10531000002DE4D132466946B8F1000F03A802D04F
:1053200001F0DBFE01E001F0ECFEC9E90001C9F883
:1053300008200AB0BDE8F087E45B000010B5044621
:10534000AFF300802046BDE81040FEF7D2BF70B535
:1053500005460C460A2000E06D1C00F011F835B13E
:1053600028780028F8D102E0641C00F009F814B194
:1053700020780028F8D1BDE870400A20AFF3008003
:1053800008B569468DF800000320ABBE08BD0000DB
:1053900000487047401D0020704700004FF0013C5E
:1053A00050F8042B51F8043B9A4221D1A2EB0C0394
:1053B000934313EACC1317D150F8042B51F8043B54
:1053C0009A4215D1A2EB0C03934313EACC130BD1F1
:1053D00050F8042B51F8043B9A4209D1A2EB0C037C
:1053E000934313EACC13DBD04FF00000704700BFAB
:1053F000D01A01BAB1FA81F101F0180122FA01F0D4
:10540000CB40C1F12001DBB2C0B2C01A2CFA01F3CB
:10541000D11A914311EAC311E6D1704710B500F1DA
:10542000280151E8002F12B9BFF32F8F04E0531E5B
:1054300041E8003404B1F4E78AB12C3001210BE0DB
:10544000821CD2E84F3FC2E8441F04B1F9E713F0D1
:10545000FF0F08BF10BD083000680028F0D1002001
:1054600010BD84465CF8303F93B110B54FF0000E8C
:1054700005E0CB78D4789C420FD2536896461A4602
:10548000002BF6D10022C1E9012E00F12C0207E029
:105490000022C1E90122C1620AE0C1E9012E0832FD
:1054A000BEF1000F116018BF0EF1040CBDE81040F2
:1054B000CCF80010283050E8001F4A1C40E80023B8
:1054C00003B1F8E77047D1E90123002A0EBFC36298
:1054D00093608B68191D002B08BF00F130010A6032
:1054E0007047000001480068704700BF10E000E00E
:1054F00007480178012905D10021017005484FF0C6
:10550000806101600448016841F001010160704759
:10551000A01D002004ED00E010E000E04FF0FF309F
:105520007047000040B10B490968B1FBF0F0411E23
:105530000020B0EB116F02D04FF0FF307047064AE9
:10554000FF231370054A06231360516004499060DD
:10555000087070475013002023ED00E010E000E0D9
:10556000A01D002010B5930712D400F12803D00726
:1055700018D153E8000F084203D1BFF32F8F00204A
:1055800005E020EA010243E8002404B1F1E710BD80
:10559000806AD20700EA010315D1002B18BF10BDA5
:1055A000002010BD53E8000F00EA01028A4203D038
:1055B000BFF32F8F002005E020EA010243E800241A
:1055C00004B1EFE710BD8B4218BF002010BD0000F2
:1055D00080B5124A4FF0000E02F1440C624606E01C
:1055E0001A6991420BD3891A03F10C029E46136883
:1055F000002BF5D10022C0E902E2016106E0C0E91A
:1056000002E3016198601A69511A1961BEF1000F35
:1056100018BF0EF10C0CCCF8000080BD74130020F4
:10562000EFF3058129B9EFF3108111B9EFF311817F
:1056300011B16FF005007047DFF804C000DF70475C
:1056400081610008EFF3058050B9EFF3108038B99D
:10565000EFF3118020B9EFF3148010F0010F02D1A5
:105660000448007A7047DFF808C000DF704700BFC9
:10567000956100087413002080B505F015FBEFF369
:10568000058028B9EFF3108010B9EFF3118010B145
:105690006FF0050080BDDFF808C000DF80BD00BFEF
:1056A000A1610008EFF3058028B9EFF3108010B96D
:1056B000EFF3118010B16FF005007047DFF804C000
:1056C00000DF704719630008F8B50546EFF3058061
:1056D00014460E4628B9EFF3108010B9EFF311808D
:1056E000F0B16FF003000DB303BBFEB129780829B8
:1056F0001CD12846FFF792FE074670B16A6A07F18F
:105700000C013046FEF78EFE0CB1F878207038465A
:10571000FD6000F05FFA002008E06FF0020005E095
:10572000DFF80CC028463146224600DF01B0F0BD4C
:10573000A5630008EFF305832BB9EFF3108313B9CA
:10574000EFF311830BB100207047DFF808C000DFD2
:10575000704700BF8D6400082DE9F0410646EFF365
:10576000058090460D4628B9EFF3108010B9EFF38D
:10577000118020B36FF00307F6B1EBB9E5B13078D3
:10578000082819D106F10C0000F0F0F8044688B1A1
:10579000726A04F10C002946FEF744FE0720002738
:1057A00020702046A77084F80380C4E9015600F0F9
:1057B00011FA01E06FF002073846BDE8F081DFF82A
:1057C00010C030462946424600DFBDE8F08100BFE8
:1057D000C1650008EFF305822AB9EFF3108212B910
:1057E000EFF3118212B16FF005007047DFF804C0CB
:1057F00000DF704781660008EFF3058129B9EFF3F8
:10580000108111B9EFF3118111B16FF005007047EC
:10581000DFF804C000DF704715670008EFF305816B
:1058200029B9EFF3108111B9EFF3118109B100200B
:105830007047DFF808C000DF704700BFD967000875
:10584000EFF3058129B9EFF3108111B9EFF311815D
:1058500011B16FF005007047DFF804C000DF70473A
:1058600045680008B0B50023D0B3C9B3032A37D8C0
:1058700086460F315EF8084F21F0070CDEF8041061
:105880002346A4EB0E0421F00305641B644505D2F6
:105890001C689E46002CF1D1002321E0D0E9004392
:1058A00063444360204450F8044C9C423EBF083897
:1058B0004360DEF8041069B1DEF8000021F0030156
:1058C00041F80E004CEA020071444860CEF8001026
:1058D0008E4603E04CEA0200CEF804000EF1080305
:1058E0001846B0BD80B5002218B311B300F108030B
:1058F000A1F1080C4FF0000E1A46634505D013685D
:105900009646002BF8D1002213E051F8043C42687F
:10591000BEF1000F23F00303A2EB030242604FF03D
:10592000010219BFDCF80000CEF80000002041F8A9
:10593000040C104680BD08B1420702D00022104678
:10594000704700221829FAD311F00703F7D110226B
:10595000C0E900120144A1F108038360002341F86B
:10596000083C81684A600122C360E8E710B501463F
:10597000B0B101F1140252E8000F10B9BFF32F8F3C
:1059800004E0036842E8003404B1F4E740B10431B4
:1059900051E8002F531C41E8003404B1F8E710BD72
:1059A000002010BDF8B1C2688A421CD802698A4240
:1059B00019D9B0B500F11402043013680B60BFF3BD
:1059C0005F8F52E8003F0C689C42F6D142E8001518
:1059D00005B1F2E750E8001F4A1E40E8002303B17A
:1059E000F8E70020B0BD6FF0030070478446002048
:1059F000BCF1000F18BF002921D002B3FBB180B564
:105A00004FF0000E02FB0130CCE9001ECCE902236E
:105A1000CCE90403481EC1F1010E194600FB02FC4B
:105A200004E088180EF1010E08600146BEF1000F77
:105A3000F7D1002043F80C000120BDE880407047FA
:105A4000F8B50446807880B3E56821462846FFF71C
:105A50003AFD002005F10C06214620703046FFF784
:105A6000A1FFA86800B3407893281DD13046FFF706
:105A70007DFF0446C0B1284600F0ECF90021002269
:105A80000646002700F0B2FA304600F041FA81687D
:105A90006A6A064604F10C00FEF7C4FC0720207079
:105AA000A770F068E07025E0F8BDA568A86808B3A5
:105AB000407883281ED1284600F0CCF9002100222E
:105AC0000646002700F092FA304600F021FA06461A
:105AD00080686A6A04F10C01FEF7A4FCF06808B162
:105AE000E1780170277005F10C002146BDE8F8400F
:105AF000FFF758BF28462146BDE8F840FFF7B1BC84
:105B00002DE9F041044600274FF0010815E0E87840
:105B10006C69000711D52F76A86870B1284600F08F
:105B200099F900210022064600F060FAEE60F06A62
:105B3000C5E90470F56285F818802546002CE6D189
:105B4000BDE8F081F8B5224C4FF6FF7604F156051A
:105B500004F15A0727E0D7E85F1F4A1C904200D89B
:105B60000022C7E8532F03B1F5E788B2E16D51F881
:105B70002000002826D001780139062913D8DFE853
:105B800001F0041207120A0D1000216E88470AE086
:105B9000616E884707E0A16E884704E0E16E8847A0
:105BA00001E0216F8847B4F85400D5E85F1F11B9B0
:105BB000BFF32F8F04E04A1EC5E8532F03B1F4E76B
:105BC0003142C8D10020BDE8F84000F0E7B800BF7E
:105BD0007413002070B501461948B0F8542000F144
:105BE0005603D3E85F4FA24202D8BFF32F8F04E0E1
:105BF000651CC3E8565F06B1F3E7A3B293421AD21D
:105C000000F15803D3E85F4F651CAA4200D8002575
:105C1000C3E8565F06B1F5E7C36DA2B243F82210A0
:105C2000417A002919BF0121817206484FF0805145
:105C300008BF016070BD0220BDE8704005F032B8B9
:105C40007413002004ED00E0012141700B4990F92C
:105C500020C001F11C02114692684AB192F920302D
:105C60006345F8DCC0E90221886002F10C0103E021
:105C70000022C0E902210831086070477413002037
:105C800010B54A1C11D0204A002402F12C0C6246A7
:105C900003E0891A03F110021C461368E3B1DA69C4
:105CA0009142F6D24FF0010E19E01749002301F19D
:105CB000300421461A460B6803F11001002BF9D17C
:105CC0004FF0FF31002AC1614FF00001C0E904121A
:105CD00017D002F1100414E000234FF0000E002C46
:105CE000C161C0E9043418BF04F1100CBEF1000F0B
:105CF000CCF8000008BF10BDDA6903F11404511A92
:105D0000D961206010BD00BF74130020C3694169D0
:105D10005A1C11D0DFF848C021B9DCF82C2082428F
:105D200018BF7047026922B15161D1691944D1612C
:105D3000416939B10A610EE0094A31B9136B8342F6
:105D400003D07047CCF82C20704703690BB1596120
:105D5000416919B10B6100214161704713637047BC
:105D600074130020B0B50C4DEC6A1CB1E069013829
:105D7000E06100D0B0BD204600F08DF8204600F074
:105D8000BDF824692CB1E0690028F4D000206061DE
:105D900000E00024EC62B0BD74130020B0B50546ED
:105DA0001548002D4469017A0DD0022906D12CB185
:105DB00094F9200095F92010814213DC2846BDE8B3
:105DC000B04000F09BB8022914D19CB1456A8DB156
:105DD00094F9200095F920108142D8BFB0BD284623
:105DE00000F059F82046FFF72FFF2846BDE8B040E5
:105DF00000F0D8B8B0BD00BF7413002010B5044641
:105E000000202080A07810F0020F0DD0C00605D42D
:105E10000F48216B406FFFF765FD05E00C48216BD3
:105E2000D0F88400FFF7BEFDA078C00708BF10BD02
:105E30000749D1F8880020B12146BDE81040FFF79E
:105E4000B1BDD1F880002146BDE81040FFF74ABD42
:105E5000741300200146806830B18268002A8A608D
:105E600000D0D1600021C160704799B191F920C084
:105E70000246806840B190F920306345F8DAC1E904
:105E800002020C30916004E00020C1E9020202F13C
:105E9000080001607047C16831B182688A60826819
:105EA00002B1D1600021C1607047B0B5044605461B
:105EB00003E02878012803D1ED68002DF9D1B0BDA9
:105EC0002046FFF7E8FF28462146BDE8B040FFF72F
:105ED000CCBF10B504464078332818BF10BD94F8E5
:105EE0002320616A2046FFF73DFB014628B120468A
:105EF0000022BDE8104000F079B810BD0146012035
:105F0000487002481C30FFF7B0BF00BF7413002078
:105F1000816B90F8220000F0100080F0180001EB77
:105F2000800070470748416939B1086B8A6B82422B
:105F300004D90068044A904200D17047012004F05F
:105F4000B1BE00BF74130020A52E5AE2B0B5114DAA
:105F5000A86A08B101240AE00F480021826D0F48A9
:105F600000F0FEFC04460028A86218BF01240A487D
:105F7000416E61B1A96C51B9C26D0948002100F0B0
:105F8000EFFC0028A86418BF01202040B0BD2046C7
:105F9000B0BD00BF741300201CAF0008A7AC000800
:105FA000916000080221417001498861FFF7BABF82
:105FB0007413002010B50C4C8446207A02281CBFB4
:105FC000002010BD636900206BB1626A5AB11846A7
:105FD00083F801C0FFF754FE04F11C00FFF73AFFFD
:105FE000FFF7E0FF012010BD74130020B0B5044698
:105FF0001546806B94F8222002F0100282F01802FD
:1060000040F822102046FFF781FE20461DB1BDE872
:10601000B040FFF7C3BEBDE8B040FFF76FBF000060
:10602000B0B5FFF75FFA194DE968286D0131002816
:10603000E96000D08047FFF795FE0020FFF7AEFE35
:10604000296C11B3AA69A86B90421CBFC5E90E2147
:10605000B0BDE96B11B10139E96316D1297A022982
:1060600013D16C6A8CB190F8200094F82010814212
:106070000BD12046FFF70FFFA86BFFF73FFF20462D
:10608000FFF790FF286CC5E90E40B0BD74130020E7
:10609000BCB50D480821D0E91820FFF74BFB0B4D8C
:1060A0000028E8640ED00A496C4629652146002282
:1060B0004FF0FF33FFF708FB10B9DDE90010884708
:1060C000E86CF3E7BCBD00BF1CAF000874130020F0
:1060D000D560000870B5144D6C6C1CB320690126A6
:1060E000013820611CE02069E0B9E06808B1A168CE
:1060F0008160686404F1180100220023E86CFFF756
:106100002BFB18B10320214604F0CCFDE0780128D8
:1061100004D161692046FFF75BFA00E066706C6CA1
:10612000002CE0D170BD00BF74130020DFF804C064
:1061300000DFFEE7F9680008EFF305832BB9EFF302
:10614000108313B9EFF311830BB100207047DFF810
:1061500008C000DF704700BF61690008EFF30581E8
:1061600029B9EFF3108111B9EFF3118111B16FF07B
:1061700005007047DFF804C000DF70473D6B000882
:10618000014628B180B51320FFF714FFBDE8804019
:10619000002070470148007A704700BF7413002048
:1061A0002DE9F843DFF8648198F80800012800F031
:1061B000A580002840F0A480554F4FF0FF30796D46
:1061C0004829C0F09F80FC68002C00F09B803D8A2D
:1061D000002D00F0978008F108009C21FEF789F956
:1061E000A8F85450C8F85C40B868D7E90B41C8F823
:1061F00040002046FFF79FFB08B1C8F88040D7E970
:106200000541DFF81091D7E907562046C847D8F86E
:1062100080100028284618BF2146C8F8741031465F
:10622000C847D8F88010002818BF2946C8F8781049
:10623000D7E909412046C847D8F88010002818BF80
:1062400021467C6BC8F87C1044B12168D4E9022354
:106250002046FFF7CBFB08B1C8F88440BC6B44B1C3
:106260002168D4E902232046FFF7C0FB08B1C8F833
:106270008840FC6B44B12168D4E902232046FFF733
:10628000B5FB08B1C8F88C403C6C44B12168D4E936
:1062900002232046FFF7AAFB08B1C8F890407C6CA7
:1062A00044B12168D4E902232046FFF79FFB08B1DF
:1062B000C8F89440BC6C44B12168D4E9022320465C
:1062C000FFF794FB08B1C8F89840FC6C44B1216812
:1062D000D4E902232046FFF789FB08B1C8F89C40A7
:1062E0003C6D44B12168D4E902232046FFF77EFBD0
:1062F00008B1C8F8A040012088F80800002001E09B
:106300004FF0FF3001B0BDE8F08300BF74130020F0
:106310001CAF000837590008B0B51E4C207A012880
:106320001CD1FFF713FEC8B11B48FF211B4D81751F
:10633000817D026881F0FF01C2F30222B1FA81F18E
:10634000C1F120018A4228BF511CFE2202FA01F14C
:10635000C17468681249FFF7E5F810B14FF0FF30DB
:10636000B0BDFFF7DBF82061FFF7C2F804F11C00B5
:10637000FFF770FD0028F1D0FFF714FE2878C00762
:106380000CBF0320022080F314880220207200201A
:10639000B0BD00BF741300200CED00E01CAF00087E
:1063A000E54300082DE9F843994690460F46044618
:1063B0006FF00305002862D0002F60D020780828F5
:1063C0005DD12046FFF72AF8064600283FD0204638
:1063D0003146FFF778F8626A06F10C013846FEF79D
:1063E00021F8B8F1000F04F10C074FF00005314619
:1063F0001CBFF07888F8000035703846FFF7D2FAF5
:10640000A068E0B34078932835D13846FFF7AEFA5C
:106410000646002598B32046FFF71CFD0021012207
:106420000746FFF7E3FD3846FFF772FD8168626AB1
:10643000074606F10C00FDF7F5FF072031463070E6
:10644000B570F868F0702046FFF70BF817E0B9F167
:10645000000F12D083204946FFF7ACFD40B10A4837
:1064600041692046FFF701FDEFF30980C0E902789A
:106470006FF0010503E0002501E06FF002052846FA
:1064800001B0BDE8F08300BF741300202DE9F84F80
:106490000D460446002760B15DB105F10F01B4FA65
:1064A00084F021F00306B6FA86F10844202804D2CD
:1064B0000027384601B0BDE8F08F06FB04F872B142
:1064C000D2F808A01368D2E90490BAF1000F11D0F5
:1064D0005FEA8A71ECD1D1683429E9D30DE0002359
:1064E0004FF0000934490093D1F8A00078B1FFF7CC
:1064F0003DFA12E0D1680029DAD1B9F1000F2FD0AE
:1065000000274045D5D319F003002BD0D1E7D1F8AF
:10651000800034210122FFF7A5F982464FF0010BDC
:10652000B9F1000F10D1BAF1000F0DD0224F414642
:106530000022F86FFFF796F9814638B14846414688
:10654000FDF7B5FF57461AE057461AE0BBF1000FBA
:1065500014D0D7F8A00060B15146FFF723FA0DE040
:106560000028A5D1BAF1000FBCD000934FF0000B6A
:10657000D6E7D7F880005146FFF7B4F900274BF073
:10658000020B002F3FF495AF0820009987F802B066
:1065900032464B4638700020C7E90110C7E9095060
:1065A000C7E90B0007F10C002146FFF71FFA02486C
:1065B000024901677DE700BF74130020415A0008BB
:1065C0002DE9F843994690460E4605466FF00307BD
:1065D00000284ED0002E4CD02878082849D1A86831
:1065E000D0B14078832817D12846FFF733FC00212B
:1065F000012204460027FFF7F9FC2046FFF788FC3C
:10660000044680686A6A3146FDF70CFFE06880B393
:1066100080F8008000272CE005F10C00FFF7A6F9B8
:10662000044680B16A6A04F10C003146FDF7FAFEB7
:1066300007200027214620702846A77084F8038091
:10664000FEF70FFF15E0B9F1000F10D09320494677
:10665000FFF7B0FC40B1094841692846FFF705FC47
:10666000EFF30980C0E902686FF0010701E06FF005
:106670000207384601B0BDE8F08300BF7413002064
:1066800070B5044622480E4645694DB32CB32078B8
:10669000042822D1207E30B3E17811F0010F02D01E
:1066A000E268AA422CD07EB388070AD5E06895F943
:1066B000201090F920208A4203DA80F82010FFF79A
:1066C000F4FB53203146FFF775FC18B120462946EC
:1066D000FFF7CBFB6FF0010070BD6FF0030070BDE2
:1066E0004FF0FF3070BDE5600021E86A0028C4E982
:1066F000041000D00461EC6201202076002070BDFF
:10670000FF2801D00130F8E76FF0020070BD00BF34
:1067100074130020B0B50546002850D0287804280E
:106720004DD1287EE8B3D5F814C0E868BCF1000F5D
:1067300000F12C031CBF2A69CCF8102029691A46E5
:10674000002918BF01F11402C2F800C0E9788907D6
:1067500021D590F8211009E093682BB193F92030EE
:106760004CB2A342C8BF194602F114031A68002AAA
:10677000F2D190F82020CBB29A420CD080F82010B1
:10678000FFF793FB07E02846FFF764FB6FF0020179
:106790000022FFF72BFCA8680028F4D10020FFF7A7
:1067A000FDFA00202870A978C90708BFB0BD0949C3
:1067B000D1F8940030B12946FFF7F4F807E06FF004
:1067C0000300B0BDD1F880002946FFF78BF8002008
:1067D000B0BD00BF7413002070B558B1D0E900659A
:1067E000846884B1A10711D1C16800201C2938BF79
:1067F00070BD16E0002500261149D1F8940038B18B
:10680000FFF7B4F80AE0C0680028F5D0002070BD9A
:10681000D1F880001C210122FFF724F8044658B16A
:106820000120A07004201121207004F10800E570FF
:106830006660FDF75EFE00E00024204670BD00BFEC
:106840007413002070B504462A48406970B154B1F1
:106850002178042907D1217E11B1E268824209D052
:106860006FF0020404E06FF0030401E04FF0FF3426
:10687000204670BD013911F0FF0F217601D00024B0
:10688000F6E7616909B122690A61236900F12C0503
:106890002A46002B18BF03F114021160E178890722
:1068A00011D590F8211009E093682BB193F92030AD
:1068B0004DB2AB42C8BF194602F114052A68002A3E
:1068C000F2D180F82010A06878B12046FFF7C2FA14
:1068D0000021002205460026FFF788FBE560E86AF4
:1068E000C4E904600120EC62207600200024FFF758
:1068F00055FABDE774130020B0B5184D6C6964B348
:10690000287A022829D1686A38B3E06AFFF7F8F8D4
:10691000A06918B100210022FFF768FBEFF309809E
:10692000A06305F11C00FFF795FAFFF73BFB002081
:106930006861E078C00701D0A06920B12046BDE8B9
:10694000B040FFF75BBA0020E06004206070686B25
:106950000028A06000D0C4606C63B0BD7413002038
:106960002DE9FE4F804608B36AB102F1100A9AE899
:106970008006D2E900439568B5B1A80716D1D06862
:10698000442813D317E04FF0180A002300274FF0D4
:1069900000090024644A0293D2F88800CDE900146B
:1069A000C8B1FEF7E3FF1CE0D06820B100263046F6
:1069B00003B0BDE8F08F37B10026B9F1000FF6D073
:1069C00017F00700F3D1BAF1000F38D0AAF1010097
:1069D0003728EBD835E0D2F8800044210122FEF7B9
:1069E00041FF05464FF0010B67B95DB1B9F1000FEA
:1069F0000AD04D4849460022406FFEF733FF074654
:106A000080B911E02E463EE047484849D0F884005E
:106A1000D1F854900028ECD0FEF7A8FF074618B133
:106A20004BF0100B2E462CE0BBF1000F1CD03E4962
:106A3000D1F88800E0B12946FEF7B4FF1DE04FF021
:106A4000180AB9F1000F06D00026B9F1480FAED3ED
:106A500019F00700ABD1002D3FF49CAFCDE9001435
:106A600002934FF0000BBFE74FF0000B002707E049
:106A7000D1F880002946FEF735FF00274FF0010BC3
:106A800000264BF0020B002E3FF491AF40F20110B4
:106A900086F802B0182130800298F070019870607A
:106AA00006F10800FDF725FD07EB0901FD2086F83A
:106AB00021A086F820A086F822000020403986F820
:106AC0002F00C6F82B00C6F82700C6F82300C6E939
:106AD0000C79C6E90E181649009D396013490978EA
:106AE00049070AD511213A1D4FF0CC33A1EB99018A
:106AF00001E008C201310029FBD1B16B002202E0A4
:106B000041F8220001320D2AFAD10A4A4FF0807072
:106B10000D62C1E90D28C863034807490166304684
:106B2000FFF73CF943E700BF741300201CAF0008D7
:106B3000A52E5AE22D610008D35E0008B0B50446C8
:106B4000C0B12078012815D1607800F00F0001282D
:106B500013D0032815D002281CBF6FF00200B0BD6F
:106B600024496FF002000A7A022A18BFB0BD496AB0
:106B700069B9B0BD6FF00300B0BD2046FFF78BF9D7
:106B800005E02046FFF787F92046FFF7BFF8E06AE7
:106B9000FEF7B6FFA06918B100210022FFF726FA20
:106BA000607802280CD1134DEFF30980A06305F142
:106BB0001C00FFF74FF9FFF7F5F90020686102E0CC
:106BC0000020FFF7EBF8E078C00701D0A06920B102
:106BD0002046FFF713F90020B0BD0020E06004203C
:106BE00060700448416B0029A16000D0CC60446310
:106BF000F1E700BF741300205FEA400C08BF91F07A
:106C0000000F4FEA8C234FEAC12243EA51514FEA69
:106C10001C5018BF00F5F0404FEA300018BF41F09B
:106C200000415FEA6C5C00F02980BCF1FF3F08BFC7
:106C300040F080407047130C06BF12044FF0100C58
:106C40004FF0000C130E04BF12020CF1080C130FCE
:106C500004BF12010CF1040C930F04BF92000CF15D
:106C6000020CD30F04BF52000CF1010C11464FF07F
:106C70000002A0F11F00A0EB0C00704711F0004FC4
:106C800008BF704731F000413FF4D5AF0B0C06BF91
:106C900009044FF0100C4FF0000C0B0E04BF09025A
:106CA0000CF1080C0B0F04BF09010CF1040C8B0F45
:106CB00004BF89000CF1020CCB0F04BF49000CF19A
:106CC000010CCCF12003A0EB0C0022FA03F302FA32
:106CD0000CF241EA030100F10100704720F07F4C03
:106CE00080EA030023F07F47ACEB070303F57C53F6
:106CF00000F0004003F1FF032DE980494FEA154BF6
:106D000009B44FEA144325EA0B4E24EA03480FF274
:106D1000042606EB132749083E785FEA320203FB9C
:106D20000667C7F5000707FB06F64FEA54374FEA38
:106D3000D64606F1020607FB066CCCF1005C4FEA72
:106D40001C472CEA074C07FB06F40CFB06F504EB8A
:106D500015464FEA961634BF00204FF000404FEA28
:106D6000D13706FB07FC4FEA1C4C0CFB0BF7D21B80
:106D700003FB0CF761EB07010CFB0EF7B0EB0740D0
:106D800072EB17420CFB08F734BFA2EB0742B2EBE1
:106D9000074261EB17414FEA0C444FEA910706FBAB
:106DA00007FC4FEA1C4C0CFB0BF7B0EBC74072EB37
:106DB000573203FB0CF734BFA2EBC742B2EBC7421A
:106DC00061EB57310CFB0EF7B0EBC70072EB57725B
:106DD0000CFB08F734BFA2EBC702B2EBC70261EBB2
:106DE0005771039F4FEA816141EA921104EBCC0491
:106DF0004FEAD1374FEA826206FB07FC42EA901263
:106E00004FEA80604FEA1C4C0CFB0BF7D21B03FBD4
:106E10000CF761EB07010CFB0EF7B0EB074072EBD0
:106E200017420CFB08F734BFA2EB0742B2EB074254
:106E300061EB17414FEA8C554FEA910704EB9C2414
:106E400006FB07FC4FEA1C4C0CFB0BF7B0EBC740F2
:106E500072EB573203FB0CF734BFA2EBC742B2EB25
:106E6000C74261EB57310CFB0EF7B0EBC70072EB7A
:106E700057720CFB08F734BFA2EBC702B2EBC70294
:106E800061EB577115EB4C254FEA816141EA921194
:106E90004FEA82624FEAD13742EA901206FB07FCC2
:106EA00044F100044FEA80604FEA1C4C0CFB0BF7E6
:106EB000D21B03FB0CF761EB07010CFB0EF7B0EBE9
:106EC000074072EB17420CFB08F734BFA2EB0742F6
:106ED000B2EB074261EB174115EB1C154FEA81310C
:106EE00041EA92414FEA823242EA90424FEA8030D0
:106EF0004FEA0C7644F1000448EA03434EEA0B489B
:106F00004FF0000EB2EB080C71EB030724BF624692
:106F100039464EEB0E0E4FF0000B0018524149411E
:106F20004BEB0B0BB2EB080C71EB03077BF1000B87
:106F300024BF624639464EEB0E0E4FF0000B001890
:106F4000524149414BEB0B0BB2EB080C71EB0307C1
:106F50007BF1000B24BF624639464EEB0E0E51EA20
:106F6000020718BF46F0010616EB0E7655F1000237
:106F700054F1000103D5BDE88901BDE80088BDE8F2
:106F80008901BDE80048B619524141EB0101A3F166
:106F90000103704780807F7E7D7C7B7A797877766D
:106FA00076757473727171706F6E6E6D6C6C6B6AE6
:106FB0006A69686867666665646463636261616084
:106FC000605F5F5E5E5D5D5C5C5B5B5A5A59595801
:106FD000585757565655555554545353525252516B
:106FE000515050504F4F4F4E4E4D4D4D4C4C4C4BC1
:106FF0004B4B4A4A4A494949484848474747474608
:107000004646454545444444444343434342424243
:1070100042414141002B26D4770021D01CB54FEAD4
:10702000370703B44FF010004FF010014FF000008D
:107030000FBCBDE810400BF1010BBBF1010F08BF05
:107040005FEA170722BF12F1010211F101014FF0AF
:10705000004143F1000300F0004043EA00007047A4
:10706000F9D35708DAE746EA064613F1400F4FEA2C
:1070700016461FDD13F1200FDFBF16430A4600211D
:1070800020335B42C8D0C3F1200746EA064602FA25
:1070900007F74FEA164646EA0706C3F1200722FA29
:1070A00003F201FA07F721FA03F14FF0000342EA75
:1070B0000702B1E746EA020646EA06464FEA1646E6
:1070C00046EA0106BCBF46EA0646360C4FF000030E
:1070D0004FF000024FF000019EE72DE9C0489346B3
:1070E00030B491E8380007C831EA400C48BF34EAB0
:1070F000430C03D5FFF7F2FDFFF78CFFF0BCBDE8B2
:1071000000882DE9C048934630B491E8380007C89C
:1071100010F0804F08BF13F0804F03D100F005F846
:10712000FFF778FFF0BCBDE8008820F07F4780EAD9
:10713000030023F07F4C07EB0C03A3F57C5300F016
:107140000040A3F1FE0392F0000F00F0B38095F031
:10715000000F00F077802DE901494FEA11404FEA16
:10716000144621EA004800FB06FC24EA064708FB17
:1071700006F607FB08F800FB07F718EB06484CEB90
:10718000164C4FEA124B18EB07484FEA15464CEBEA
:10719000174022EA0B4E0BFB06FC25EA06470EFBC6
:1071A00006F607FB0EFE0BFB07F71EEB064E4CEB3D
:1071B000164C4FF000061EEB074E4CEB174B18EB2E
:1071C0000B0840F1000018EB0E0B58EB000840F1E3
:1071D00000008F1A4FF000013CBFC943661B14BF6B
:1071E000B5EB040C00213CBFC943F61B4FEA174422
:1071F0004EEA8E0E27EA04454FEA1C4704FB07625D
:107200002CEA074C05FB07F70CFB05F604FB0CFC0E
:1072100016EB074642EB174216EB0C4642EB1C42BC
:107220001BEB060658EB0202414146EA9E0601D5D9
:10723000BDE80189B619524141EB0101A3F10103F7
:10724000BDE801894FEA14454FEA114724EA054693
:1072500021EA074C05FB07F406FB07F70CFB06F1D8
:1072600005FB0CFC11EB074144EB17444FEA1247B6
:1072700011EB0C4144EB1C4422EA074C05FB07F2DE
:1072800006FB07F70CFB06F605FB0CFC16EB0746A6
:1072900042EB174216EB0C4642EB1C456A1854F1C0
:1072A000000148BF7047B619524141EB0101A3F1FB
:1072B0000103704795F0000F37D04FEA11424FEAB3
:1072C000144721EA024624EA074C02FB07F106FBB9
:1072D00007F70CFB06F402FB0CFC14EB074441EB34
:1072E00017414FEA154714EB0C4441EB1C4125EACA
:1072F000074C02FB07F506FB07F70CFB06F602FB43
:107300000CFC16EB074645EB174516EB0C4645EB18
:107310001C42121951F1000148BF7047B619524181
:1073200041EB0101A3F1010370474FEA14454FEA15
:10733000114724EA054621EA074C05FB07F106FB45
:1073400007F70CFB06F24FF0000605FB0CFC12EBF6
:10735000074241EB174112EB0C4251EB1C4148BF75
:107360007047921841EB0101A3F10103704700003F
:107370000CB50022274900920192086840F4803041
:1073800008604FF4A043086800F4003001900098B2
:10739000401C0090019810B900989842F3D10868F9
:1073A000800334D5012001901A484030026842F031
:1073B000805202601848026842F440420260154858
:1073C000083002680260026842F40042026002680B
:1073D00042F4A0520260031F104A1A600A6842F089
:1073E00080720A600A689201FCD50D4940F205726C
:1073F0000A60016821F003010160016841F00201A7
:1074000001600168C1F381010229FAD10CBD01922A
:107410000CBD0000003802400070004008544007D6
:10742000003C0240114810B5016841F47001016050
:107430000F48016841F0010101600D4A0021083246
:10744000116002680B4B1A400260031D0A4A1A6061
:10745000026822F48022026005480C300160FFF7C8
:1074600087FF024905488039086010BD88ED00E0BB
:1074700000380240FFFFF6FE1030002400400008F4
:107480002DE9F04122480188C9063ED5808821486F
:107490004069214DC0F50074204F29688C4206D9FF
:1074A000A7F510700844611AC7E9010117E01B4AEB
:1074B0000020403AA2F500734FF4007C03E05E5CCC
:1074C0001654401C491C6145F9D3002103E05E5C61
:1074D0001654401C491CA142F9D3C7E901201048A9
:1074E0000078C00709D10E4803F05AFB28B10D48B7
:1074F00001F098FF0A48AFF300800A4800230749CB
:10750000806C1A46FEF728F92C60BDE8F081000077
:107510000050004000600240681300206019002005
:1075200054140020985000202DE9F0412248008892
:10753000C0063FD52048001D00882048D0F88C00A8
:107540001F4DC0F500741F4F29688C4204D9A7F560
:1075500010704218601A15E01A4A0020403AA2F54D
:1075600000734FF4007C03E05E5C1654401C491C21
:107570006145F9D3002103E05E5C1654401C491CB0
:10758000A142F9D3C7E901200F480078C00709D10B
:107590000D4803F005FB28B10C4802F0EBFB0A484C
:1075A000AFF3008009480023064900691A46FEF738
:1075B000D3F82C60BDE8F081004400400060024038
:1075C00064130020B016002060140020386D0020E5
:1075D0002DE9F04121480088C0063DD51F48001D17
:1075E00000881F48C06A1F4DC0F500741E4F2968EF
:1075F0008C4204D9A7F540704218601A14E01B4A67
:107600000020A2F500734FF4007C03E05E5C16548A
:10761000401C491C6145F9D3002103E05E5C16540F
:10762000401C491CA142F9D3C7E901201048007849
:10763000C00709D10E4803F0B3FA28B10D4802F093
:10764000E1F90B48AFF300800A4800230649806C3B
:107650001A46FEF781F82C60BDE8F0810048004032
:10766000006002406C130020D01C0020D01B0020C2
:107670005C14002050620020124810B5016841F0EF
:10768000040101601048016821F470610160016823
:1076900041F4A06101600C480C30016821F4706174
:1076A0000160001F016841F470610160001F016802
:1076B00021F03001016000F013F8034910201A3165
:1076C000088010BD303802400008024010B5002389
:1076D00002E0CC5CC4545B1C9342FAD310BD0000A2
:1076E00030B53648016841F0130101603448016843
:1076F00021F030010160C16821F03001C1600168F2
:1077000021F00C010160016841F004010160816811
:1077100041F00C018160C16821F00C01C160416839
:1077200021F0020141602749086820F440300860D8
:10773000086840F480300860224A0832106840F43B
:10774000403010600B1D186820F480701860141D04
:10775000206820F4403020601B48056825F440353F
:107760000560056845F480350560856845F4403559
:107770008560456825F480754560C56825F4403509
:10778000C5600D6825F440450D600D6845F48045E1
:107790000D60216821F440412160116841F44041AD
:1077A0001160196821F08001196081154183054835
:1077B0001A3001808021018030BD00003038024045
:1077C0000000024000040240001002402DE9F04396
:1077D000DFF848C000F007004FF4807660F31F31F7
:1077E000ACF818600E4F3E80002002230D4C802222
:1077F0004FF6FF79BD1C5FEA014801D5238300E005
:1078000063833A8009EA41012A80401C1028F2D3A0
:10781000ACF81A602E80BDE8F08300000010024032
:10782000180402400000024010B504464068617A26
:107830000144204600F00AF80246617A606801447B
:10784000206803682046BDE81040184730B5E122A3
:107850000A70427A521D4A70027A8A7000231A46D0
:1078600008E044688D18A45CEC704468A45C634034
:10787000521C92B2447A9442F3D8E4B2CA1C091D55
:10788000A354437AEF225A54407A401D30BD0FB4BE
:1078900010B5044604AA40680399FCF7B1FD82B212
:1078A000D4E9000103682046984710BC5DF814FB3A
:1078B000437A426801F07F01D154417A491C4172F8
:1078C000704710B5447A4368C1F3C61201F07F01D6
:1078D0001A55427A521CD2B2427243689954417A84
:1078E000491C417210BD01720021417270470000B5
:1078F000084810B50078C00709D1064803F050F9D0
:1079000028B1054800F024F80248AFF3008002488F
:1079100010BD0000181400201C1400200A4810B5E7
:107920000078C00709D1084803F03AF928B10748A0
:1079300001F058F80448AFF30080044801F02AF839
:1079400040F38010401C10BD34140020004900207A
:1079500011490A6842F008020A6010490A6822F4D4
:1079600040720A600A6842F480720A600B490C3166
:107970000A6822F440720A60091F0A6842F44072E1
:107980000A60091F0A6822F010020A6003491022E7
:1079900018310A800A80704730380240000C0240DB
:1079A0002DE9FF470C46054600F0A4FE4FF41049B0
:1079B000494600F0EBFD200E8DF80000200C8DF8FC
:1079C0000100200A8DF802007C21E7B205F13206A1
:1079D0004FF000088DF804108DF8037001A802968E
:1079E000ADF80C80C4F3475102F0B0F8C4F387310E
:1079F00002F0ACF8C4F3C71102F0A8F8394602F05F
:107A0000A5F8294602F080F8044601F0E5FF016878
:107A100022460B682946984700F06CFE04236A460C
:107A2000494600F049FD00F065FE04236A464946D8
:107A300000F076FE7B218DF8041001A80296ADF8C7
:107A40000C809DF8001002F081F89DF8011002F002
:107A50007DF89DF8021002F079F89DF8031002F00D
:107A600075F8294602F050F8044601F0B5FF0168A8
:107A700022460B6829469847BDE8FF87FEB50546B4
:107A800000F580540020E4E91A012081608101F6AC
:107A9000FF70C0F30F362846FFF782FF05F1320171
:107AA000684602F06CF87E210170314602F055F80C
:107AB000294602F029F8044601F08EFF01682246AB
:107AC0000B68294698474FF4204500240C4F14E0DA
:107AD0003878C00709D10A4803F062F828B109488C
:107AE00000F046FE0648AFF300800648294600F045
:107AF0004DFD641CA4B205F58055B442E8D3FEBD2B
:107B000028140020003900202DE9FE431D461346AD
:107B1000064600F5805421B1B4F87000401C88423C
:107B20006CD1A4F87010A16E06F1680901EB090090
:107B30002A461946FFF7CAFDA06E4FF000082844F8
:107B40004FF42047A066B0F5805F0FD100F0D2FD62
:107B500054F8683F4A46618907EB013100F0ACFCFC
:107B60006089401C6081404644F86889B4F872100E
:107B700000EB0135E06EA8423DD100F0BBFD54F8AA
:107B8000683F4A46618907EB013100F095FC608946
:107B900006F13201401C6081C4F8008001917A2115
:107BA0008DF800106846ADF80880290E01F0CEFF70
:107BB000C5F3074101F0CAFFC5F3072101F0C6FF75
:107BC000E9B201F0C3FF314601F09EFF044601F027
:107BD00003FF016822460B6831469847BFF34F8F79
:107BE00007490868074A00F4E06010430860BFF3E3
:107BF0004F8F00BFFDE70120BDE8FE830020FBE7BB
:107C00000CED00E00400FA05084810B50078C00744
:107C100009D1064802F0C4FF28B1054800F00AF86F
:107C20000248AFF30080024810BD0000201400207D
:107C3000A81D002070470160002100F1080241608A
:107C400082EC030A4161816170470268511A4269FE
:107C500001F113038A1A272B02D243680B444360B5
:107C6000416190ED010AD0ED030A90ED021AB8EEE1
:107C7000C00A20EE800A00EE901AF8EEE00A01EE4B
:107C8000200A00EE902A90ED041AF8EEE00A01EEC8
:107C9000200ABDEEC00A10EE100A70472DE9F0412F
:107CA00048680D460321C4780779284602F02DFF65
:107CB000064614B1012C0DD106E001F069FA3246F6
:107CC000394601F087F905E001F062FA324639469B
:107CD00001F0E4F92868012102682846BDE8F04176
:107CE000104770B548680D46C478067900F002FD6B
:107CF00004EB840106EB410150F821000321040C40
:107D000086B2284602F001FF054601F041FA2A46F4
:107D1000322101F05FF902F055FB2B4600222321AE
:107D200002F034FA02F018FD0A232A4640F2062136
:107D300002F09EFB02F084FE01232A46314602F047
:107D400053FD02F009FD01232A46214602F090FB73
:107D500002F076FE02F0DCFD02F034FB2B46BDE8BB
:107D600070404FF41672232102F0D8BA2DE9FE4379
:107D70008846814602F0F0FC02F0C8FC074602F09B
:107D80005FFE02F037FE0646D8F80400C578047995
:107D900000F0B0FC05EB850204EB420206EB074164
:107DA00040F8221000F0A6FC00F096FC09F6AA218B
:107DB000684601F0E4FE87210170294601F0C6FE05
:107DC000214601F0C3FE394601F0C7FE314601F0FD
:107DD000C4FE09F678210C4601F096FE0246D8F85A
:107DE00000002146836840469847BDE8FE832DE9A0
:107DF000F0410C460121204602F087FE0746032190
:107E0000204602F082FE06460521204602F07DFE55
:107E1000054602F015FE01232A46314602F0E4FC35
:107E200002F09AFC01232A46394602F021FB206821
:107E3000012102682046BDE8F04110472DE9FE43CC
:107E4000074648680E46C578047900F053FC05EBF8
:107E5000850104EB410150F8210007F6AA214FEA01
:107E600010491FFA80F8684601F089FE8B210170E5
:107E7000294601F06BFE214601F068FE494601F0FB
:107E80006CFE414601F069FE07F678210C4601F0D0
:107E90003BFE024630682146836830469847BDE87D
:107EA000FE8300002DE9FE4388460446012140463A
:107EB00002F02BFE07460321404602F026FE06464E
:107EC00002F04AFC4FF080410546896B781AA8639E
:107ED00000F010FCA96B016002F0B2FD12490546EA
:107EE0000968701AA86300F005FCA96B416000F0F6
:107EF00001FC00F0F1FB04F6AA21684601F03FFE08
:107F000081210170002101F021FE04F678210C4648
:107F100001F0FAFD0246D8F8000021468368404689
:107F20009847BDE8FE830000380C00402DE9F04181
:107F300048680D460321C4780779284602F0E5FD1C
:107F400080460521284602F0E0FD064614B1012CCA
:107F50000FD107E002F036FA33464246394602F0C6
:107F600015F906E002F02EFA33464246394602F091
:107F7000D5F92868012102682846BDE8F04110477C
:107F800070B548680C461025C27812B1012A09D193
:107F900003E0FFF7ADFC074803E0FFF7A9FC054845
:107FA000801E05802068012102682046BDE87040DF
:107FB000104700001A0C02402DE9FE4307464868AE
:107FC0000E460321C5780479304602F09EFD8146B5
:107FD0000521304602F099FD804600F08BFB05EB51
:107FE000850204EB420208EB094140F8221000F040
:107FF00081FB00F071FB07F6AA21684601F0BFFD86
:108000008C210170294601F0A1FD214601F09EFD61
:1080100007F678210C4601F077FD024630682146CC
:10802000836830469847BDE8FE8300000EB50446DD
:108030002A48009000200190451E029069462B4678
:108040000022D4F88000FDF73FFB019880780D28CE
:108050003ED2DFE800F03D070C11161B20253D2A1B
:108060002F34390069462046FFF71CFF30E069468F
:108070002046FFF7BCFE2BE069462046FFF70EFEC8
:1080800026E069462046FFF751FF21E06946204679
:10809000FFF776FF1CE06946204600F046F817E03F
:1080A00069462046FFF762FE12E06946204600F06E
:1080B00017F80DE069462046FFF713FE08E0694611
:1080C0002046FFF7BBFE03E069462046FFF774FF3A
:1080D00000F07EFB00F076FBB0E70000B8AE0008D1
:1080E00070B50846012102F010FD044602F06AF95D
:1080F00023460022232102F049F802F02DFB40F232
:1081000006250A232246294602F0B2F902F098FC1D
:108110000A232246294602F067FB01F039F822467D
:10812000BDE87040282100F0B9BF2DE9F04F80462E
:10813000087A0E46401FC0B2FF2101EB5000C7B2C3
:108140008DB00121304602F0E0FC019008F6AA2033
:1081500000240390323840F2062B029035E00320D1
:1081600000EB4400C1B27068891C10F801A0042122
:1081700001EB4401C9B2891C002510F8019000965A
:108180004A4651464046019B00F066F868B36D1CB4
:10819000EDB2022DF3D307A8039901F0F0FC86217C
:1081A0000170514601F0D2FC494601F0CFFC01219B
:1081B00001F0CCFC029901F0A7FC0246306802995C
:1081C000836830469847641CE4B2BC42C7D304A815
:1081D000039901F0D4FC86210170514601F0B6FCF0
:1081E000494601F0B3FC02210CE00AA8039901F012
:1081F000C6FC86210170514601F0A8FC494601F0F9
:10820000A5FC002101F0A2FC029901F07DFC0246D0
:108210003068029983683046984702F09DFA0A2335
:108220005C465946019A02F023F902F009FC0A2340
:108230002146019A02F0D8FA02F0C4F80022232164
:10824000019B01F0A3FF00F0A3FF2821019A00F099
:1082500025FF0DB0BDE8F08F2DE9F0479A46904616
:108260008946089C00F046FA014609EB890008EBB4
:10827000400051F82000050C86B202F0A3F85346E6
:108280000022232101F082FF002836D102F064FA97
:1082900040F206270A235246394602F0E9F818B19F
:1082A00020680123456824E000F072FF5246322125
:1082B00000F090FE58B100F08BFA00F067FA00F081
:1082C00067FF5246322100F085FE0028DDD102F022
:1082D000B7FB01235246314602F086FA70B102F034
:1082E000AFFB0A235246394602F07EFA2068022389
:1082F0004568424649462046A84782E002F02CFAEB
:1083000001235246294602F0B3F850B102F024FA94
:108310000A235246394602F0ABF820680323456829
:10832000E7E702F04FF853464FF4C872232101F0FB
:10833000C5FE70B100F04CFA00F028FA02F042F8E5
:1083400053460022232101F021FF206804234568C1
:10835000CFE7FFF7CDFA48481025058002F032F844
:1083600053464FF47A72232101F0C0FE424EB61EEE
:1083700070B100F02DFA00F009FAFFF7B9FA358074
:1083800002F020F853460022232101F0FFFE38E0DE
:1083900002F018F853460022232101F0F7FE38B10D
:1083A00000F016FA00F0F2F9FFF7A2FA358028E0A3
:1083B000FFF79EFAFFF7B2FAF0B302F0CDF905230A
:1083C0005246394602F054F818B12068072347682E
:1083D0000AE002F035FB05235246394602F004FA62
:1083E00090B1206808234768424649462046B8476E
:1083F000FFF77EFA358000F0CBFE5246282100F0D0
:108400004DFE0120BDE8F087FFF772FAFFF786FA0C
:1084100090B101F0D7FF53464FF41672232101F0BB
:108420007DFFFFF765FA358041F28830FDF7F8F8F7
:1084300020680B23424600E012E04568494620468A
:10844000A84701F0BFFF53460022232101F09EFE02
:1084500000F09EFE5246282100F020FE0020D1E7C9
:10846000206809234246476849462046B847FFF737
:108470003FFA35800220C5E71A0C024008B52821D2
:1084800000914FF4806300F1D80208A100F0D6FCFF
:108490000C2100F59B6200913C2304A1803001F087
:1084A00077FB044940F8801D08BD000044656C69F5
:1084B0007665720074AE00082DE9F04780461D46CF
:1084C00016460C4611F0FF0F12D004F1FF0020F009
:1084D000FF00071BAF4204D94046BDE8F04700F05B
:1084E00023B83B46404600F01FF83C443E44ED1B99
:1084F0002F0A4FF480790CE04B4632462146404625
:1085000000F012F804F58074A5F5807506F5807604
:108510007F1E002FF0D1002D03D02B46324621467E
:10852000DAE7BDE8F08700002DE9F0411D4614466A
:108530000E46074600F054F81348402303800221FA
:10854000384600F06DF8C6F30741384600F068F889
:10855000C6F30721384600F063F8F1B201E014F8E1
:10856000011B384600F05CF86D1EF8D20648801EEC
:10857000038002E00A20FDF753F8384600F03EF889
:10858000C007F7D1BDE8F0811A04024070B50C466F
:10859000054600F025F81148402303802021284695
:1085A00000F03EF8C4F30741284600F039F8C4F360
:1085B0000721284600F034F8E1B2284600F030F8F0
:1085C0000648801E038002E00A20FDF729F82846AD
:1085D00000F014F8C007F7D170BD00001A04024083
:1085E000054900B540230B80062100F019F8024828
:1085F000801E038000BD00001A04024010B5074928
:10860000402304460B80052100F00AF8FF21204694
:1086100000F006F80149891E0B8010BD1A040240C3
:10862000064802889207FCD5044A121D1180018871
:10863000C907FCD01088C0B270470000083C004059
:108640002048016841F0020101601F48016821F4DF
:108650007F510160016841F4D45101601A480C3027
:10866000016821F47F510160016841F4AA51016061
:10867000001F016841F47F510160001F016821F073
:1086800078010160104820300168104A11400160F3
:1086900001680F4A114301600A481030016841F433
:1086A000004101600B49002008800A4A1C321080FA
:1086B0000A1D10804FF45170088003494020183182
:1086C000088070473038024000040240FF0F00FF6E
:1086D00000606600003C004010B504460021FFF732
:1086E00055FF2246BDE810404FF48053002110464C
:1086F000FFF7E2BE084810B50078C00709D1064868
:1087000002F04EFA28B1054800F032F80248AFF303
:108710000080024810BD000028140020003900200D
:10872000F0B506461148402514460F460580032142
:108730003046FFF775FFC7F307413046FFF770FF7C
:10874000C7F307213046FFF76BFFF9B23046FFF75A
:1087500067FF05E0FF213046FFF762FF04F8010BD9
:108760005B1EF7D20148801E0580F0BD1A0402404E
:1087700010B50446FFF764FF20464FF480532246AD
:108780000021FFF7CDFF204610BD000070B50C4D55
:1087900010242C800A20FCF743FFA81E048020240C
:1087A00004800A20FCF73CFF2C800A20FCF738FFED
:1087B000BDE8704040F601410020FFF707B8000017
:1087C0001A08024001491020088070471A08024028
:1087D000084810B50078C00709D1064802F0E0F952
:1087E00028B1054800F00AF80248AFF300800248BB
:1087F00010BD00002C1400203014002010B50446D9
:10880000FEF73AFF024A10211180204610BD0000F9
:108810001A08024010B5044600F0EEFD0368A28875
:1088200021681B68BDE810401847F0B500240160BE
:108830008480147A641C8480147A641FE6B2E12474
:108840000C7051680468897841F08001A170046857
:10885000017961700024214610E04D1C2F46EDB2D5
:10886000D2F804C0AD1CD0F800E0C91C1CF805C04B
:108870000EF801C05168495D4C40B9B2B142ECD329
:108880000168F61C5C408B5582880168114401F830
:10889000024C83880268EF211A4402F8011CF0BDE3
:1088A000FEB5164604460A4604F10C01019100216A
:1088B000ADF808108F218DF800101D46684611464E
:1088C00001F044F9314601F041F9294601F03EF941
:1088D00004F13E010D4601F017F9044601F034FAA7
:1088E000016822460B6829469847FEBD10B504462C
:1088F00002F021F9002824D0606880780D2820D269
:10890000DFE800F01F070707070707071F0707072C
:1089100007000C480078C00709D10A4802F040F966
:1089200028B10948FFF7AAFD0648AFF300800648C2
:1089300021460023D0F88000BDE810401A46FCF71D
:108940000BBF10BD24140020202E002070B514464B
:108950000D4601F0F9F9016822460B682946BDE889
:108960007040184770470000084810B50078C007ED
:1089700009D1064802F014F928B1054800F032F890
:108980000248AFF30080024810BD000034140020FC
:108990000049002070B5054600240068611EFCF700
:1089A00019FF0F4A4FF4004050831083801010834A
:1089B0001169490400D501240021108363061C0EAF
:1089C00013695B0401D5641CE4B25083491C072978
:1089D000F3D32868FCF734FF6006000E70BD00007A
:1089E0000010024010B513A100F002FC1549044626
:1089F000086840F0100008601349086820F07C40C7
:108A00000860086840F088400860C86820F07C4032
:108A1000C860C86840F0A840C860486820F420409A
:108A20004860886840F07C4088602046FFF7B2FFCD
:108A3000204610BD506F736974696F6E5377697407
:108A400063680000303802400010024004464FF0D6
:108A5000800B71480078C00709D16F4802F0A0F878
:108A600028B16E4800F082FC6B48AFF300806B4881
:108A700000F04CFC05464FF0000869480078C0073C
:108A800009D1674802F08CF828B1664801F07AFEF7
:108A90006348AFF30080634801F038FE82466248C5
:108AA0000078C00709D1604802F07AF828B15F4821
:108AB00001F0DCFF5C48AFF300805C4801F09AFFF6
:108AC00081465B480078C00709D1594802F068F830
:108AD00028B15848FFF786FF5548AFF30080554846
:108AE000FFF758FF0746800606D501F02DF9524AD8
:108AF000A2F800B0002106E001F026F94E4A921CCF
:108B0000A2F800B0012100F54050002680F8501175
:108B1000B4F88602B84215D0A4F88672012600F097
:108B20005BFF8821FEF7DFFEA9B2FEF7CAFE5146C1
:108B3000FEF7C7FE4946FEF7C4FE3946FEF7B8FE0B
:108B4000FEF772FEB4F88212514502D0A4F882A258
:108B50000126B4F88412494502D0A4F88492012673
:108B6000B4F88002A84202D0A4F88052012601F095
:108B7000EBF800F5405090F85001304212D001F06F
:108B8000E3F88821FEF7AFFEA9B2FEF79AFE514640
:108B9000FEF797FE4946FEF794FE3946FEF788FE3B
:108BA000FEF742FE4FF4FA70FCF73AFD08F10108B7
:108BB000B8F10A0FFFF461AF00F00EFF8821FEF755
:108BC00092FEA9B2FEF77DFE5146FEF77AFE4946B7
:108BD000FEF777FE3946FEF76BFEFEF725FE01F045
:108BE000B3F800F5405090F8500100283FF431AF41
:108BF00001F0AAF88821FEF776FEA9B2FEF761FE21
:108C00005146FEF75EFE4946FEF75BFE3946FEF72B
:108C10004FFEFEF709FE1CE74C1400205014002004
:108C200068140020C89E00206C140020209F0020A3
:108C30003414002000490020180C024008B52821F7
:108C400000914FF4007300F1800203A100F0F6F8E8
:108C50000349016008BD000053746174757300001E
:108C600094AE00082E48D4B00078C00709D12C4833
:108C700001F096FF28B12B4800F0C4FE2848AFF35E
:108C800000802948274C0078C00709D1264801F008
:108C900087FF28B1254800F0C5FB2348AFF30080CB
:108CA0002348224E0078C00709D1214801F078FFFF
:108CB00028B1204801F05EF81D48AFF300801D4D3B
:108CC000684600F0D5F81C4901601CA800F0D0F8F7
:108CD0001A49016038A800F0CBF81949483410351A
:108CE0004836016020466422694600F04CFF10B906
:108CF000684601F0A9F8304664221CA900F043FF41
:108D000010B91CA800F0FEFD2846642238A900F026
:108D10003AFF0028E6D138A8FFF7E8FDE2E70000B7
:108D20005C14002050620020541400209850002051
:108D300060140020386D002010AF0008E4AE000879
:108D400080AE000808B5282100914FF4806300F13F
:108D5000800203A100F072F80349016008BD000021
:108D60004D65737361676500A0AE00080F4C4FF44A
:108D70004065A6144FF4A0574FF400684FF4C05953
:108D80004FF4806A258366836420FCF749FC2783BF
:108D9000A4F81A806420FCF743FCA4F81890A4F807
:108DA0001AA06420FCF73CFCECE700000010024035
:108DB0000E490A6842F010020A600D490A6822F062
:108DC0007C720A600A6842F0A8720A60CA6822F0DF
:108DD0007C72CA608A6842F07C728A604A6822F4B7
:108DE000E0524A604FF4E0524A8370473038024004
:108DF00000100240044600680168204688470020B1
:108E00006067FDF793F910B50446406FFDF7A6F9CA
:108E10000020606710BD000010B50446406F10B11F
:108E20002046FFF7F0FF04F1500221460248FDF70B
:108E300083F9606710BD0000F58D000830B5094C5E
:108E4000039D04600165002100F10804C0E91514C8
:108E50004424C465C0E91A5101674167C0E9182379
:108E600030BD0000ACAE000870477047704700008E
:108E7000024901600021416081607047B8AE00087E
:108E80001B48016841F0110101601A48016821F096
:108E9000C0010160016841F080010160C16821F0FA
:108EA000C001C160816841F0C0018160416821F06A
:108EB00008014160016A21F470410162016A41F4D4
:108EC000405101620C48016821F470410160016861
:108ED00041F4A0410160C16821F47041C160816822
:108EE00041F470418160416821F0C00141607047E8
:108EF0003038024000000240001002400B48016878
:108F000041F4803101600A48002101808180A7215D
:108F100001856321C162642181634FF4C0410183F3
:108F20001021018401210180818270474438024070
:108F3000004001401648016841F0080101601548F1
:108F4000016821F040710160016841F00071016029
:108F500010480C30016821F040710160016841F057
:108F600080710160001F016841F040710160001FC5
:108F7000016821F48051016006482430016821F421
:108F800070210160016841F4003101607047000008
:108F900030380240000C02400C48016841F00401E6
:108FA00001600B49002008800A1D10805720121D07
:108FB00010800748F12218300280054820300288CE
:108FC00022F00A02028001200880704740380240E7
:108FD000000800402DE9F04791468846824600F09F
:108FE00053F800283CD1FFF7F3FBFFF7CFFB1F4EF0
:108FF000002030600546044630681D490027C1F84E
:1090000038800121504600F0ADF8B04611E0142040
:10901000FCF706FBD8F80000641C143586B2192C46
:1090200007D90024BE4203D1FFF7D2FBFFF7AEFB06
:109030003746504600F028F808B94D45E7D30321DC
:10904000504600F08FF8D8F8000084B200F0D4F950
:10905000224608A1FEF71BFC504600F015F810B19F
:109060000020BDE8F0870120FBE700002408004055
:10907000004001406F70656E20636F756E7465729D
:109080003D25640D0A00000010B5FFF76DFCFFF7E9
:1090900081FC40F34000401C10BD00002DE9F0476A
:1090A00091468846824600F053F800283CD1FFF7ED
:1090B0008FFBFFF76BFB1F4E002030600446074616
:1090C00030681D490025C1F838800221504600F063
:1090D00049F8B04611E01420FCF7A2FAD8F80000D5
:1090E000641C143586B20A2C07D90024BE4203D171
:1090F000FFF76EFBFFF74AFB3746504600F028F8B3
:1091000008B94D45E7D30321504600F02BF8D8F8B5
:10911000000084B200F070F9224608A1FEF7B7FB08
:10912000504600F015F810B10020BDE8F08701208E
:10913000FBE700002408004000400140636C6F73AF
:109140006520636F756E7465723D25640D0A0000BD
:1091500010B5FFF709FCFFF71DFC40F38000401C31
:1091600010BD000040230948802201290AD00229AD
:1091700005D0C022032906D0042902D103E043838D
:10918000028370470383428370470000001002404F
:10919000084810B50078C00709D1064801F000FD65
:1091A00028B1054800F00AF80248AFF300800248F1
:1091B00010BD0000481400204050002010B50AA146
:1091C00000F016F80446FFF75BFE2046FFF796FE18
:1091D0002046FFF7AFFE2046FFF7DEFE03212046C4
:1091E000FFF7C0FF204610BD467269646765000046
:1091F00010B504460820C4E9011004F11800E0602D
:109200001C202061201DFCF709FB2060204610BDBA
:109210002DE9F04100240C4E0D460227E807778324
:1092200005D0022000F0ECFC37835A2004E05A20DD
:1092300000F0E6FC3783022000F0E2FC6D08641CBD
:10924000082CEBD3BDE8F0810010024070B500247B
:10925000104D04E0641CE4B2012000F0D1FC286948
:10926000800702D5C82CF5D310E0C82C0ED20024FC
:1092700004E0641CE4B2012000F0C2FC286980070D
:1092800002D4F02CF5D301E0F02C01D3002070BD06
:10929000012070BD0010024070B5064C02256583A8
:1092A00040F2EE2000F0ACFC2583BDE870400F20BA
:1092B00000F0A6BC0010024010B50446FFF7ECFF1A
:1092C0002046FFF7C3FFCC212046FFF7A1FF204631
:1092D000BDE810404421FFF79BBF000070B50A4C69
:1092E00002256583284600F08BFC25830C2000F0C6
:1092F00087FC2069800701D5012400E0002432208A
:1093000000F07EFC204670BD0010024070B504469F
:10931000FFF7D2FF2046FFF7BFFF2046FFF796FF7B
:1093200088B1CC212046FFF773FFBE212046FFF70E
:109330006FFF204600F00AF80546204600F006F8C8
:1093400005EB002070BD4FF4803070BD70B5002477
:109350000646254664083046FFF7C0FF08B144F0D2
:1093600080046D1C082DF5D3204670BD10490A6895
:1093700042F010020A600F490A6822F00C020A60EB
:109380000A6842F004020A604A6842F002024A6037
:109390008A6842F00C028A60CA6822F00C02CA6035
:1093A000CA6842F00402CA6002220A8370470000C1
:1093B000303802400010024070B50D460646144693
:1093C00000694FF0FF31FCF705FA04E029783046D8
:1093D00000F00AF86D1C641EA4B2F7D23069BDE833
:1093E0007040FCF72DBA0000024802881206FCD536
:1093F0008180704700500040084810B50078C007D1
:1094000009D1064801F0CCFB28B1054800F00AF864
:109410000248AFF30080024810BD00005414002041
:109420009850002038B548A11030FFF7E1FE142114
:1094300000F190020091702343A1383000F0A8FBA6
:1094400000F6586140F8441C414A404940F8481D24
:10945000116841F00C0111603E490B6823F0407324
:109460000B600B6843F000730B603A490C310B68DA
:1094700023F040730B600B6843F080730B60091F8F
:109480000B6843F040730B60091F0B6823F4805393
:109490000B60304924310B6823F470230B600B6898
:1094A00043F400230B602C490B6823F030030B605E
:1094B0000B6843F020030B6027490C310B6823F045
:1094C00030030B600B6843F010030B60091F0B683F
:1094D00043F030030B60091F0B6823F004030B609B
:1094E0001D4920310B6823F470630B600B6843F453
:1094F00000630B60164910310B6843F480130B6056
:10950000164900238B810B8240248C8241F2171470
:109510000C8142F21C048C81116841F4001111602D
:109520000F493F228A600B610E4ACA610B4A121D25
:109530008A614A154A610C4A0A610C4A4FF40011CB
:10954000C2F8001138BD00004C6F6700CCAE0008B7
:109550003038024000080240000C02400050004039
:1095600000600240201700200105020804E000E02E
:1095700010B500F029FB77480078C00709D175487D
:1095800001F00EFB28B17448FFF738F97148AFF3CA
:10959000008072480078C00709D1704801F000FBD4
:1095A00028B16F48FFF7E4F86C48AFF300806D48CE
:1095B0000078C00709D16B4801F0F2FA28B16A4877
:1095C00000F0D8FB6748AFF3008068480078C00718
:1095D00009D1664801F0E4FA28B16548FEF7B8F908
:1095E0006248AFF3008063480078C00709D1614842
:1095F00001F0D6FA28B16048FFF7B8FE5D48AFF336
:1096000000805E480078C00709D15C4801F0C8FAC4
:1096100028B15B48FFF706FF5848AFF30080594870
:109620000078C00709D1574801F0BAFA28B1564866
:1096300000F0E8F95348AFF3008054480078C007C1
:1096400009D1524801F0ACFA28B15148FFF7CAF9E4
:109650004E48AFF300804F480078C00709D14D480D
:1096600001F09EFA28B14C4801F08CF84948AFF35C
:1096700000804A480078C00709D1484801F090FAB4
:1096800028B1474801F0F2F94448AFF3008045485B
:109690000078C00709D1434801F082FA28B1424856
:1096A00000F0C2FE3F48AFF3008040480078C0079A
:1096B00009D13E4801F074FA28B13D48FFF77EFD1C
:1096C0003A48AFF300803B480078C00709D13948D9
:1096D00001F066FA28B13848FEF7D0FE3548AFF3FE
:1096E00000803548FFF798FB34480078C00709D15F
:1096F000324801F055FA28B13148FFF723FB2F48D3
:10970000AFF300802E48FFF787FB2E480078C00794
:1097100009D12C4801F044FA28B12B48FFF78EFA02
:109720002848AFF300802848FFF776FB27480078E9
:10973000C00709D1254801F033FA28B12448FFF7C2
:1097400037FB2248AFF30080BDE810402048FFF708
:109750000DBB00002C140020301400202814002021
:109760000039002060140020386D002018140020FB
:109770001C1400204C14002050140020541400200D
:10978000985000205C140020506200203414002007
:109790000049002068140020C89E00206C1400209E
:1097A000209F002064140020909E00204814002078
:1097B0004050002024140020202E00203C140020C3
:1097C000C04B0020381400203849002040140020ED
:1097D0004414002008B5282100914FF4007300F1D3
:1097E000800203A1FFF72AFB0349016008BD0000C6
:1097F000426F6F7400000000D8AE0008FEB5164638
:1098000004460A4604F10C0101910021ADF808104C
:109810008F218DF800101D466846114600F096F91C
:10982000314600F093F9294600F090F904F13E0129
:109830000D4600F069F90446FFF7DEFD0168224697
:109840000B6829469847FEBD2DE9FC410546406856
:109850000179C27801EBC2168179407901EBC0171A
:1098600023480078C00709D1214801F099F928B1AF
:10987000204800F087FF1E48AFF300804FF0804083
:109880001C4C806B301AA063FEF734FFA16B0160A3
:1098900019480078C00709D1174801F081F928B1AB
:1098A000164801F0E3F81448AFF300801448134C55
:1098B0000068381AA063FEF71DFFA16B4160FEF738
:1098C00019FF04460021FEF761FE22464FF4805343
:1098D00000211046FEF7F0FD01232A4605F10C0198
:1098E0006846FEF7A2FFFEF795FFBDE8FC81000089
:1098F00068140020C89E00206C140020209F0020C7
:10990000380C00401CB5044601F015F9002815D0AC
:109910000023224604F10C016846FEF786FFFEF79D
:1099200079FF60688078082808D2DFE800F0070433
:109930000808080808082046FFF786FF1CBD0B48EA
:109940000078C00709D1094801F02AF928B1084870
:10995000FEF794FD0548AFF300800548002321463B
:10996000D0F880001A46FBF7F7FE1CBD2414002037
:10997000202E00201CB50B46024600F10C01684663
:10998000FEF753FF0446FFF737FD0368A2882168FE
:109990001B6898471CBD70B50D4606461446006905
:1099A0004FF0FF31FBF716FF04E015F8011B3046BE
:1099B00000F008F8641EA4B2F7D23069BDE8704028
:1099C000FBF73EBF034802881206FCD50148001D84
:1099D0000180704700480040084810B50078C00773
:1099E00009D1064801F0DCF828B1054800F00AF872
:1099F0000248AFF30080024810BD00005C14002054
:109A00005062002038B536A11030FFF7F1FB70210D
:109A100000F190020091142331A1383000F0B8F821
:109A200000F6082140F8441C2F4940F8481D2F49F2
:109A30000A6842F002020A602C4A1032136843F4AA
:109A4000802313600A6842F400120A6028490A68F9
:109A500022F470020A600A6842F420020A60244973
:109A60000C310A6822F470020A600A6842F4A0020B
:109A70000A60091F0A6842F420020A60091F0A6886
:109A800022F440620A601A4924310A6822F47F42B3
:109A90000A600A6842F4EE420A60164900220A800F
:109AA0000B1D1A80134C4023083423800C1F41F2F5
:109AB0001713238042F21C030B800F494FF47C6381
:109AC0008B608A620D4A4A63221F0A634A15CA6282
:109AD0000B4A8A620B4A8021C2F8001138BD00008F
