:020000040800F2
:1040000078A3002001430008094300080B4300087F
:104010000D4300080F430008114300080000000092
:104020000000000000000000000000003D43000808
:104030001543000800000000C9430008D9430008E8
:104040001B4300081B4300081B4300081B430008D8
:104050001B4300081B4300081B4300081B430008C8
:104060001B4300081B4300081B4300081B430008B8
:104070001B4300081B4300081B4300081B430008A8
:104080001B4300081B4300081B4300081B43000898
:104090001B4300081B4300081B4300081B43000888
:1040A0001B4300081B4300081B4300081B43000878
:1040B0001B4300081B4300081B4300081B43000868
:1040C0001B4300081B4300081B4300081B43000858
:1040D0001B4300081B430008217B0008C97B000824
:1040E0001B4300081B4300081B4300081B43000838
:1040F0001B4300081B4300081B4300081B43000828
:104100001B4300081B4300081B4300081B43000817
:104110001B430008797A00081B4300081B43000872
:104120001B4300081B4300081B4300081B430008F7
:104130001B4300081B4300081B4300081B430008E7
:104140001B4300081B4300081B4300081B430008D7
:104150001B4300081B4300081B4300081B430008C7
:104160001B4300081B4300081B4300081B430008B7
:104170001B4300081B4300081B4300081B430008A7
:104180001B4300081B43000800F002F800F0A4F8ED
:104190000AA090E8000C82448344AAF10107DA45A2
:1041A00001D100F099F8AFF2090EBAE80F0013F050
:1041B000010F18BFFB1A43F00103184750740000A9
:1041C000707400000A4410F8014B14F00F0508BF8A
:1041D00010F8015B240908BF10F8014B6D1E05D0D3
:1041E00010F8013B6D1E01F8013BF9D1641E03D0AC
:1041F000641E01F8015BFBD19142E4D370470000DB
:104200000023002400250026103A28BF78C1FBD8DF
:10421000520728BF30C148BF0B6070476E2900F0BD
:104220004582702900F08783662907F0BC806529E4
:1042300007F0B980672907F0B6806129AFF30080E5
:1042400003681B0A28BF41F08001692900F0F28150
:10425000642900F0EF81752900F0EC816F2900F0EE
:104260001483782900F05383E92900F0AF82E42910
:1042700000F0AC82F52900F0A982EF2900F011834B
:10428000F82900F052830368DB0928BF41F0800160
:10429000632900F00D87732900F01287E32900F0ED
:1042A0001D87F32900F02287002070471FB507F013
:1042B00075F800F091FF04000020002107F058F885
:1042C000401C60600020002107F03CF8E06000F036
:1042D0003DF91FBD10B510BD00F050FF114603B4ED
:1042E00006F0FFFF03BCFFF7E1FF06F0FDFF01F062
:1042F00027F803B4FFF7EEFF03BC00F039FF00001E
:104300000948804709480047FEE7FEE7FEE7FEE769
:10431000FEE7FEE7FEE7FEE7FEE7FEE704480549A5
:10432000034A054B704700001D7A000889410008C8
:10433000789F002078A30020789F0020EFF3098069
:10434000816911F8021C91BB01B590E80F10E0479C
:10435000BDE800508CE80300234B93E8060091422F
:1043600008BF704741B91EF0100F10D11F490868EF
:1043700020F0010008600AE02CE9F00F1EF0100F99
:1043800008BF2CED108AC1F838C081F822E01A600D
:1043900092F82210906B61F0FF0E1EF0100F08BF14
:1043A000B0EC108AB0E8F00F80F30988704710B5C0
:1043B0000F4A1368994206D852F821400FC8A04707
:1043C000EFF30984206010BD10B501F0B1FBBDE82A
:1043D0001040EFF3098CBFE710B501F02DFFBDE8E9
:1043E0001040EFF3098CB7E79413002034EF00E09E
:1043F0000CB400081CB50C46064B7B446946009083
:10440000204600F06CF904460020694600F07AF975
:1044100020461CBD07030000032A40F2308010F044
:10442000030C00F0158011F8013BBCF1020F62444F
:1044300098BF11F801CB00F8013B38BF11F8013BE0
:10444000A2F1040298BF00F801CB38BF00F8013B8D
:1044500011F0030300F04583083AC0F0088051F8DA
:10446000043B083A51F804CBA0E80810F5E7121D08
:104470005CBF51F8043B40F8043BAFF30080D20727
:1044800024BF11F8013B11F801CB48BF11F8012BF3
:1044900024BF00F8013B00F801CB48BF00F8012B16
:1044A000704702F0FF0343EA032242EA024200F0AF
:1044B00024B84FF000020429C0F0128010F0030C61
:1044C00000F01B80CCF1040CBCF1020F18BF00F807
:1044D000012BA8BF20F8022BA1EB0C0100F00DB8B6
:1044E0005FEAC17C24BF00F8012B00F8012B48BF14
:1044F00000F8012B70474FF0000200B513469446B8
:104500009646203922BFA0E80C50A0E80C50B1F12B
:104510002001BFF4F7AF090728BFA0E80C5048BF3F
:104520000CC05DF804EB890028BF40F8042B08BFDD
:10453000704748BF20F8022B11F0804F18BF00F8D9
:10454000012B7047704770477047000070B5064CEC
:104550007C44064D7D4403E0206820448047241DB0
:10456000AC42F9D170BD0000047200000C72000072
:1045700070B5044685690068C10601D5302600E0A3
:104580002026C00707D070BDD4E9012130469047EE
:10459000206A401C20626D1EF6D570BD70B50446C1
:1045A00085690078C00707D170BDD4E901212020BA
:1045B0009047206A401C20626D1EF6D570BD0968C8
:1045C0004A0501D540B27047C905FCD500B2704715
:1045D00009684A0501D5C0B27047C905FCD580B24B
:1045E000704770B50C460546012A05D0287880062C
:1045F00000D5EA69002302E0012305E05B1C934239
:1046000002D2E05C0028F9D1A869E618C01AA861B6
:10461000286A184428622846FFF7AAFF04E0D5E973
:10462000012114F8010B9047B442F8D32846FFF754
:10463000B5FF70BD2DE9F0410646002410687529CC
:10464000314616A510D0FFF7BAFF002802DA404223
:1046500013A507E031688A0701D512A502E04907D2
:1046600004D511A5012401E0FFF7B2FF00210A22C1
:1046700006F1240709E0B0FBF2FCB0FBF2F302FB09
:104680001C00303078541846491C0028F3D12346CA
:104690002A463046BDE8F04100F09ABA000000001A
:1046A0002D0000002B0000002000000011680268AF
:1046B000006A530501D508700AE0D30501D50880CA
:1046C00006E0130603D5C217C1E9000200E0086046
:1046D0000120704701694A1C02610878704700B5E3
:1046E0008FB0CDE901310021059105497944CDE92B
:1046F00003101146684600F029F90FB000BD000014
:10470000E5FFFFFF0A6802F8010B0A60704700002E
:104710002DE9FF5F15468A460446DFF8AC80F84471
:104720000027D8E900103E46CDE9001010E03AF825
:1047300016106A4602A800F0DDFC411C07D0217863
:10474000890603D5E269391891420DD80744761CD1
:104750002078800602D5E069B84205DDAE42E6DB8E
:104760003AF816000028E2D1A069C01BA0612046DB
:10477000FFF7FEFED8E90010CDE90010002017E099
:104780003AF818106A4602A800F0B4FCB0F1FF3FF6
:1047900081460BD000250DF1080B05E0D4E901217D
:1047A0001BF8050090476D1C4D45F7D308F101003B
:1047B000B0428046E4DB206A384420622046FFF79E
:1047C000EDFEBDE8FF9F0000EE6C00002DE9F0411A
:1047D0008046D21D22F007020025D2E90002F52909
:1047E00015A614D0011E72F1000106DA0023D0EBE9
:1047F000030063EB020211A608E0D8F800108B0753
:1048000001D50FA602E0490701D50EA601251146E4
:10481000002408F1240704E000F095F930323A55FD
:10482000641C50EA0102F7D12B463246214640462D
:10483000BDE8F04100F0CCB9000000002D00000000
:104840002B0000002000000030B4002100F12404FF
:1048500008E002F00705D208303542EA4372DB086F
:104860006554491C52EA0305F3D10468002310A2E1
:10487000250707D5A40600D421B1C46901230DA2E0
:10488000641EC46130BC00F0A3B910B504462146D3
:104890001068FFF79DFE02462046BDE81040002349
:1048A000D2E7D21D22F00701D1E90023CCE70000B6
:1048B0000000000030000000F0B40D46018809053A
:1048C00002D5214C7C4402E01F4C7C440E34002174
:1048D00000F1240608E002F00F071209E75D42EA42
:1048E00003721B097754491C52EA0307F3D102787B
:1048F0000023120704D5702D06D009B1022311340C
:104900002246F0BC00F064B901231034F8E770B51A
:1049100004460D4621461068FFF75AFE0246294616
:104920002046BDE870400023C6E7D21D22F00703F1
:10493000D3E90023C0E70368126843F02003036053
:104940000823C3610023B7E7506B00002DE9F05F37
:10495000894604464FF0000ADFF874B1FB44C0F802
:1049600020A02046E1688847002874D0252806D07A
:10497000D4E901219047206A401C2062F1E700261B
:104980005F462046E16888472028054607DB312D31
:1049900005D2781910F8200C08B10643F1E7B007EA
:1049A00001D526F00406C4F81CA00027C4F818A0FE
:1049B0002A2D09D0284606F061FC38B304EB87089D
:1049C000303DC8F8185019E059F8041B204604EB94
:1049D00087029161E1688847012F054618D1E06997
:1049E000002820DA26F020061DE0D8F8180000EB99
:1049F000800005EB40003038C8F818002046E16818
:104A00008847054606F03AFC0028EED1012F0AD06F
:104A10002E2D08D12046E16888477F1C0546022FCD
:104A200046F02006C4DBA069002803DA404246F0C5
:104A30000106A061F00701D026F010066C2D0BD006
:104A4000682D09D04C2D39D06A2D35D0742D35D034
:104A50007A2D33D016E038E0E1682F4620468847AB
:104A6000B842054609D16C2F26D04FF48060E1682A
:104A7000064320468847054604E06C2F1AD04FF4C1
:104A8000807006430DB3A5F14100192802D82035E6
:104A900046F400664A462946204626604E46FFF701
:104AA000BDFB80B101280BD0F61D26F0070000F1F8
:104AB000080956E74020E4E78020D8E70020D6E741
:104AC00006F104094DE7284652E7206ABDE8F09F49
:104AD000E06A000010B500F033FBBDE8104000F0C4
:104AE00029BB10B5203AC0F00B80B1E81850203A2D
:104AF000A0E81850B1E81850A0E81850BFF4F5AF7E
:104B00005FEA027C24BFB1E81850A0E8185044BF07
:104B100018C918C0BDE810405FEA827C24BF51F874
:104B2000043B40F8043B08BF7047D20728BF31F868
:104B3000023B48BF11F8012B28BF20F8023B48BFB9
:104B400000F8012B704730B5B0F10A024FEA900E21
:104B500071F100034EEA817EB0EB0E0061EB910132
:104B60004FEA101E4EEA017E10EB0E0041EB1111D0
:104B70004FEA102E4EEA016E10EB0E0041EB1121B0
:104B80004FEA104E4EEA014E10EB0E0041EB114180
:104B9000401841F100014FEAD00040EA41704FEA6D
:104BA000D10110EB80054FEA810444EA907444EB94
:104BB00001046D1944EB0404521BA3414FF00003A0
:104BC00048BF0A3200D530BD401C41F1000130BD64
:104BD0002DE9F0470D4699469246044600F1240817
:104BE0000168880604D5E06921F01001216000E029
:104BF0000120A84201DD471B00E00027A1697A19C6
:104C000002EB0900081AA0612078C00602D42046F1
:104C1000FFF7AEFC002608E0D4E901211AF80600EF
:104C20009047206A401C761C20624E45F4DB2078B9
:104C3000C0060AD52046FFF79BFC06E0D4E9012117
:104C400030209047206A401C2062381EA7F10107DF
:104C5000F4DC07E0D4E9012118F805009047206A48
:104C6000401C2062281EA5F10105F3DC2046FFF759
:104C700095FC2078000602D50220BDE8F0870120CF
:104C8000FBE770472DE9FF4F0C461E464FF0FF37FC
:104C90008BB0D2E90001DDF860800A908A46C1F34A
:104CA0000A5505B93D46002108464FF00000BAF10B
:104CB000000F00F4400005DA00EB80004FF44001E3
:104CC00001EA50004FEA9059B9F1010F00DDB946F1
:104CD0000A9850EA4A000ED044F61050A5F2FF356B
:104CE00045432F14B8F1000F1ED07542291E1EDD5A
:104CF000C9F100021CE0B8F1010F4FF0000001D033
:104D0000302103E0F24305E02154401CB042FBDBBC
:104D100030460022002121540B99C1F80880C1E9D6
:104D200000200FB0BDE8F08FBD1B6D1CDEE74A46CA
:104D300000DA694206A800F095FA06AB93E807008E
:104D400003AB83E8070050460A9902F051FA8DE858
:104D50000700A0F500501F3800900398002D09DDD2
:104D600042F21F014A46084403A90390684602F034
:104D7000B0FC08E0A0F500504A461F3803A9039094
:104D8000684602F0BAFC8DE807000004000C03D06E
:104D90004FF0FF30410800E01046B8F1000F03D09B
:104DA0000022009215461EE0751E05D4FFF7CBFECB
:104DB000303262556D1EF9D5B3460122084302D048
:104DC00000227F1C04E02078302801D100227F1EC1
:104DD000002A099786D01DE0112D07DAFFF7B3FEF0
:104DE000303262556D1C50EA0102F5D1084302D001
:104DF0000098C8B10EE00021681E05E0235C625CEB
:104E000063542254401E491C8142F7DBAB46A81B69
:104E1000401E0990002004F80B000B98099AC0F876
:104E20000880C0E9002B7CE711264FF0000859E705
:104E30002DE9F04F88460446D21D22F0070191B0BB
:104E4000D1E90001CDE90A0106F0D0F902460B983C
:104E5000C00F01D02D2007E02068810701D52B204D
:104E600002E0202101EAC000032A099001D0072AAC
:104E700005DB03464146204600F0B4F90BE12078FB
:104E8000800601D5E06900E00620B8F1650F814693
:104E900006D0B8F1660F18D0B8F1670F70D131E0C5
:104EA0000020B9F1110F009001DB112301E009F19D
:104EB00001030AAA01A90CA8FFF7E4FEDDE90C70C2
:104EC000002609F10105834647E001204B4600908A
:104ED0004FF000470AAA01A90CA8FFF7D3FEDDE9AD
:104EE0000DB00C995D46002610B909F101000D18AE
:104EF000B9EB050003D4C0F1FF3609F10105A5EBBC
:104F000009002BE0B9F1010F01DA4FF0010900208F
:104F1000B9F1110F0090484601DD112300E003466E
:104F20000AAA01A90CA8FFF7ADFEDDE90C704D46F9
:104F300000268346207800070AD4AB4500DA5D4698
:104F400001A8012D04DD411911F8011C302907D0F9
:104F50004F4502DA17F1040F04DA012082460FE010
:104F60006D1EEEE7002F02DCED1B3E4403E0781CD3
:104F7000A84200DD7D1CB81B00F1010A4FF000477C
:104F80002078000703D4AA4501DB4FF0FF3A002147
:104F9000B7F1004F0DF143088DF8431024D00220E3
:104FA0002B23002F01DA7F422D230A21021EA0F1BC
:104FB000010000DC5FB197FBF1FC97FBF1F201FB14
:104FC0001C7C17460CF1300C08F801CDEEE7A8F177
:104FD000010003702188090501D5452100E0652104
:104FE000A0F1010800F8011C09980FA9A1EB08071E
:104FF000FF1D00B10120411901EBEA70A16938449D
:10500000081A401EA0612078C00602D42046FFF78F
:10501000AFFA099828B1D4E901219047206A401CD1
:1050200020622078C00622D52046FFF7A1FA1EE0B4
:10503000002E04DBB34502DD01A8805D00E03020D6
:10504000D4E901219047206A401C2062761CAAF115
:1050500001005FEA000A0AD100F0BEF8C0680168EA
:10506000405CD4E901219047206A401C2062281E40
:10507000A5F10105DCDC07E0D4E9012118F8010BFA
:105080009047206A401C2062381EA7F10107F3DC1C
:105090002046FFF783FA032011B043E610B54369B9
:1050A00013B1AFF3008001E0FFF79BFA012010BDC0
:1050B000127800F124010A7000224A700122EDE703
:1050C00011684FF0FF32E9E710B5436913B1AFF350
:1050D000008001E0FFF71CFB012010BD128800F1E9
:1050E000240182840022C2840122EDE711684FF07E
:1050F000FF32E9E770B516460C46054600F064F845
:10510000036893F80101012806D0FF2C0FD8185D21
:1051100068B101202C7070BDD3F8070132462146DA
:1051200003F2071303442846BDE8704018474FF0C8
:10513000FF3070BD002801D000F01AB870470000A1
:1051400010B5002102A000F004F9012010BD0000FC
:105150005349475056464E3A20507572652076693D
:10516000727475616C20666E2063616C6C6564009E
:1051700001491820ABBEFEE726000200754600F08C
:1051800009F9AE4605006946534620F007008546FA
:1051900018B020B5FFF7C2F8BDE820404FF0000678
:1051A0004FF000074FF000084FF0000B21F007010F
:1051B000AC46ACE8C009ACE8C009ACE8C009ACE852
:1051C000C0098D467047000010B500F005F8001DBD
:1051D00010BD00BF9D61000010B500F0DBF820306D
:1051E00010BD00002DE9F0411F460446032601686A
:1051F000072A01F4006004DB08B116A505E016A536
:1052000003E008B115A500E015A521F0100020600D
:10521000A069C01EA0610FB1401EA0612046FFF72B
:10522000A7F94FB1D4E9012138469047206A401CC4
:105230002062C01C206206E0206AFAE7D4E901215E
:1052400015F8010B9047761EF8D22046FFF7A6F915
:10525000BDE8F0814E414E006E616E00494E460041
:10526000696E66002DE9F047814616468AB03348DC
:1052700078440DC88DE80D0030487844801C03AC9C
:105280000DC884E80D0041F69B300844372190FB9F
:10529000F1F290FBF1F5A5F1800501FB12041B3C36
:1052A00002D56442012000E00020DFF890A0804693
:1052B0000027FA44AAF1BE0A0DE0E00709D0324601
:1052C000684607EB47010AEB810102F016FA8DE808
:1052D000070064107F1C002CEFD1184F7F44AC3FB7
:1052E00018E0E80714D007EB04100DF1180A90E855
:1052F0000E008AE80E00C068F04201D198190890AB
:10530000324606A903A802F0F8F903AB83E80700C8
:105310006D10641C002DE4D132466946B8F1000FCF
:1053200003A802D002F0D5F901E002F0E6F9C9E9DC
:105330000001C9F808200AB0BDE8F0875C620000EF
:1053400010B50446AFF300802046BDE81040FEF7DC
:10535000D0BF70B505460C460A2000E06D1C00F079
:1053600011F835B128780028F8D102E0641C00F06B
:1053700009F814B120780028F8D1BDE870400A205F
:10538000AFF3008008B569468DF800000320ABBE7E
:1053900008BD000000487047481D0020704700000D
:1053A0004FF0013C50F8042B51F8043B9A4221D1B4
:1053B000A2EB0C03934313EACC1317D150F8042B40
:1053C00051F8043B9A4215D1A2EB0C03934313EA24
:1053D000CC130BD150F8042B51F8043B9A4209D15D
:1053E000A2EB0C03934313EACC13DBD04FF0000085
:1053F000704700BFD01A01BAB1FA81F101F018016B
:1054000022FA01F0CB40C1F12001DBB2C0B2C01AD8
:105410002CFA01F3D11A914311EAC311E6D1704776
:10542000EFF3058129B9EFF3108111B9EFF3118181
:1054300011B16FF00500704746F2D53CC0F6000C84
:1054400000DF7047EFF3058028B9EFF3108010B943
:10545000EFF3118010B14FF0FF307047EFF314807D
:1054600010F0010F01BF41F27830C2F20000007A63
:10547000704746F2E93CC0F6000C00DF70470000C0
:10548000EFF3058028B9EFF3108010B9EFF3118026
:1054900010B16FF00500704746F2F53CC0F6000C05
:1054A000EFF3148212F0020F0AD112F0040FEFF39F
:1054B00008820CBF203A683A22F0070282F309887A
:1054C00000DF7047EFF3058028B9EFF3108010B9C3
:1054D000EFF3118010B16FF00500704746F2A15C48
:1054E000C0F6000CEFF3148212F0020F0AD112F092
:1054F000040FEFF308820CBF203A683A22F007024B
:1055000082F3098800DF7047F0B581B00546144684
:10551000EFF3058030B9EFF3108018B9EFF3118085
:10552000002830D06FF00300002D33D0002B31D194
:1055300000292FD02A78082A2CD16878F8B105F1F3
:10554000280050E8002F12B9BFF32F8F04E0531E3C
:1055500040E8003606B1F4E7002A1CBFEE6A002ED0
:105560000DD00120B21CD2E84F3FC2E8470F07B16F
:10557000F9E713F0FF0F0FD0B668002EF2D16FF0ED
:10558000020001B0F0BD46F2396C28462246C0F652
:10559000000C00DF01B0F0BD6A6A06F10C0308469A
:1055A0001946FEF739FF002C1CBFF0782070F5601B
:1055B000304600F011FB002001B0F0BDEFF3058391
:1055C0002BB9EFF3108313B9EFF311830BB1002064
:1055D000704746F2D57CC0F6000CEFF3148313F04D
:1055E000020F0AD113F0040FEFF308830CBF203B26
:1055F000683B23F0070383F3098800DF704700004E
:105600002DE9F0410546EFF3058090460E4628B996
:10561000EFF3108010B9EFF3118048B36FF0030778
:10562000F5B1EBB9E6B12878082819D16878D0B17E
:1056300005F10C0000F0FAF80446A4B16A6A04F11E
:105640000C003146FEF7E8FE0720002720700120FD
:1056500060702046A77084F80380A56000F0BCFA53
:105660003846BDE8F0816FF002073846BDE8F081AA
:1056700046F6351C284631464246C0F6000C00DF8F
:10568000BDE8F081EFF305822AB9EFF3108212B979
:10569000EFF3118212B16FF00500704746F64D2C02
:1056A000C0F6000C00DF7047EFF3058129B9EFF376
:1056B000108111B9EFF3118111B16FF0050070473E
:1056C00046F6ED2CC0F6000C00DF7047EFF30581C5
:1056D00029B9EFF3108111B9EFF3118109B100205D
:1056E000704746F6C53CC0F6000CEFF3148212F08A
:1056F000020F0AD112F0040FEFF308820CBF203A18
:10570000683A22F0070282F3098800DF7047000040
:10571000EFF3058129B9EFF3108111B9EFF311818E
:1057200011B16FF00500704746F6394CC0F6000C19
:1057300000DF7047B0B500284FF0000318BF002904
:105740002DD0032A2BD886460F315EF8083F21F072
:10575000070C00BFDEF804401946A1EB0E0524F04B
:105760000303ED1A654506D20B688E46002BF1D176
:1057700000231846B0BD4568002C654445604CEADE
:10578000020008D043F80E1003EB0E014860CEF87B
:1057900000108E4601E0CEF804000EF10803184612
:1057A000B0BD000000284FF0000218BF00291DD036
:1057B000A1F1080C00F10802002100BF1346634567
:1057C00006D01A681946002AF8D100221046704700
:1057D000DCF804304268002923F00303A2EB030243
:1057E000426005D0DCF800000122086010467047D6
:1057F00000200122CCF8040010467047002298B126
:1058000010F0070F10D118290ED311F007030BD198
:105810000160102201444260A1F10802826000226E
:1058200041F8082CC26001221046704710B3B0B591
:10583000014651F8042B51E8003F9A4202D8BFF3C9
:105840002F8F04E05C1C41E8004505B1F3E70168D7
:105850008B42BDE8B0400DD200F1140151E8000FB9
:1058600010B9BFF32F8F04E0026841E8002303B1B1
:10587000F4E7704700207047B0B5002826D0C26812
:105880008A4223D802698A4220D9021D52E8003F89
:1058900013B9BFF32F8F04E05C1E42E8004505B149
:1058A000F4E7002B04BF6FF00200B0BD14300268B3
:1058B0000A60BFF35F8F50E8002F0B689B42F6D160
:1058C00040E8001404B1F2E70020B0BD6FF003001F
:1058D000B0BD000084460020BCF1000F18BF0029B5
:1058E0001FD0002A18BF002B1BD080B54FF0000E30
:1058F00002FB0130CCE9001ECCE90223CCE9040311
:10590000481E09D000FB023CC1F101019818013189
:1059100018600346FAD163460120C3F800E0BDE8F1
:10592000804070472DE9F04381B00446607800283C
:1059300000F0B880A07804F10C0600285AD0356831
:105940006878002800F0AE80D4E9010105F12C0848
:1059500005F1300705F10C064246002818BF00F19A
:10596000080211603A46D4E90101002918BF0A1D56
:1059700021461060002060703046FFF77DFFA86868
:10598000002800F08F804078932840F08B803046CC
:10599000FFF74CFF0446002C00F08480284600F0FE
:1059A00073FA0021002206464FF0000900F0DCFBEC
:1059B000304600F03BFB06466A6A04F10C00B16811
:1059C000FEF72AFD40F20710208084F80290F0686C
:1059D000E0702B6B002B68D00021C2B21846C37850
:1059E000934267D243680146002BF7D10021C4E9F6
:1059F000011064E056F8045C6878002852D0A8686A
:105A000020B34078832821D1284600F03DFA0021B8
:105A1000002207464FF0000800F0A6FB384600F0D1
:105A200005FB07466A6A3146B868FEF7F5FCF86878
:105A300000281CBFE178017084F8018005F10C009A
:105A4000214601B0BDE8F043FFF716BF284650F8E5
:105A5000301F79B1E37800220F46F97899420ED2CF
:105A600079683A460029F7D10021C4E9011705F108
:105A70002C0109E00021C4E90111EC6208E0C4E94D
:105A8000017207F108011746002F0C6018BF381D7E
:105A9000046005F1280050E8001F4A1C40E800237C
:105AA00003B1F8E701B0BDE8F083C4E90199C8F893
:105AB000004009E0C4E9010100F108080846002897
:105AC000C8F8004018BF071D3C6005F1280050E8E9
:105AD000001F4A1C40E8002303B1F8E701B0BDE80D
:105AE000F08300002DE9F0410446002C08BFBDE81A
:105AF000F08100274FF0010825466C69E87810F026
:105B0000080F11D02F76A86870B1284600F0BCF9B4
:105B100000210022064600F027FBEE60F06AC5E98E
:105B20000470F56285F81880002CE5D1BDE8F0819D
:105B3000F0B581B041F278344FF6FF76C2F200043E
:105B400004F15A05B4F85800D5E85F1F11B9BFF346
:105B50002F8F04E04A1EC5E8532F03B1F4E731420A
:105B600034D004F15E0700BFD7E85F1F4A1C9042A3
:105B700000D80022C7E8532F03B1F5E788B2216EA1
:105B800051F8200010B30178013906290FD8DFE859
:105B900001F0040E060E080A0C00616E06E0A16E0C
:105BA00004E0E16E02E0216F00E0616F8847B4F825
:105BB0005800D5E85F1F11B9BFF32F8F04E04A1ECC
:105BC000C5E8532F03B1F4E73142CDD1002001B035
:105BD000BDE8F04000F0ACB870B5014641F2783055
:105BE000C2F20000B0F8582000F15A03D3E85F4F2A
:105BF000A24202D8BFF32F8F04E0651CC3E8565FB2
:105C000006B1F3E7A3B293421DD200F15C03D3E8DF
:105C10005F4F651CAA4200D80025C3E8565F06B155
:105C2000F5E7036EA2B243F82210417A00291EBFA5
:105C30000121C17270BD4EF604504FF08051CEF27A
:105C40000000016070BD0220BDE8704005F068BB37
:105C50004EF21000CEF20000006870474EF21000C5
:105C60000721CEF200000160704700004BF298500F
:105C700041F27831C0F60000C2F200014068C96804
:105C8000B1FBF0F04EF214010138CEF200010860D1
:105C9000002048604EF62350FF21CEF20000017034
:105CA0004FF0FF307047000070B541F2783EC2F20D
:105CB000000EDEF83410D1B3C8690138C86118BFCE
:105CC00070BD4FF0010C0EF124030022C86830B102
:105CD0008C6884608C68002C18BFE060CA6081F812
:105CE00001C01C4691F92000DEF82C504DB11E4633
:105CF0002C4694F92050854208DBA5682646002DE5
:105D0000F6D104F10800C1E9022404E0C1E9024629
:105D1000B16004F10C000160096929B1C86900286B
:105D2000D4D00020486100E00021CEF8341070BDCE
:105D3000B0B541F2783CC2F2000CDCF81C50002DEA
:105D4000294618BF01219CF808200028A2F1020270
:105D5000B2FA82F24FEA521201EA020136D090F909
:105D6000203001291BD195F920108B4217DD01222B
:105D70006A700CF12402DCF82C3053B1144600BFD9
:105D80001A4692F920308B4270DD93681446002B3E
:105D9000F6D10021C5E9021202F108016BE00121F0
:105DA00041700CF12401DCF82C2052B10C4600BFEC
:105DB000114691F920209A422FDB8A680C46002A6E
:105DC000F6D10022C0E9022108312AE0DCF82CE0FB
:105DD000BEF1000F704618BF01200840012821D1F4
:105DE00095F920309EF920009842D8BFB0BDDEF86A
:105DF0000C00C0B1DEF808108160DEF80810002940
:105E000018BFC86000200121CEF80C00DCF82C007F
:105E1000697058B90CF1240113E0C0E90214A060C4
:105E20000C310860B0BD0120687070460CF124028E
:105E3000014691F92000984209DD88680A46002849
:105E4000F6D10020C5E9020101F1080004E0C5E92E
:105E50000212956001F10C00056002208EF801002D
:105E6000CCF820E0BDE8B04000F0EAB8C5E9022473
:105E7000A56002F10C010D6002214170CCF82000F8
:105E8000BDE8B04000F0DCB801468868002808BFD3
:105E900070478268002A8A6018BFD1600021C16003
:105EA00070470000002908BF704791F920C083683F
:105EB0004BB10246184690F92030634508DB8368F1
:105EC0000246002BF6D10022C1E90220083003E08F
:105ED000C1E9020291600C3001607047C16800297D
:105EE00008BF704782688A608268002A18BFD16044
:105EF0000021C16070470000014603E0C968002925
:105F000008BF70470A78012AF8D0C2683AB183689E
:105F100093608368002B18BFDA600022C26090F99A
:105F200020C08A6852B100BF134693F92020624511
:105F30000BDB9A681946002AF6D100E00B460021D7
:105F4000C0E9021303F1080104E0C0E902318860EE
:105F500003F10C0108607047B0B54178332940D196
:105F600090F82310426A00F1280401F0010511F0B5
:105F7000020F11D10DB354E8001F01EA020393424E
:105F800003D0BFF32F8F002105E021EA020344E88C
:105F9000003505B1EFE71EE021682B4601EA020457
:105FA000A21A18BF0122002D18BF0123134218D1D5
:105FB00054EA050208BFB0BD0DE054E8001F1142CD
:105FC00003D1BFF32F8F002105E021EA020344E84B
:105FD000003505B1F1E721B10022BDE8B04000F085
:105FE000C3B8B0BD01210028417008BF704741F21D
:105FF000783290F920C0C2F20002D36A02F1240183
:106000004BB10A46194691F92030634508DB8B688D
:106010000A46002BF6D10022C0E90221083103E034
:10602000C0E9021290600C310860704790F82210AD
:10603000806B602201F0100182EA81010844704700
:1060400041F27830C2F20000C169002908BF7047F0
:10605000086B8A6B824207D9006842F6A562CEF2CD
:106060005A22904200D17047012005F059B9000032
:106070000221417041F27831C2F200010862FFF75B
:10608000DFBF000010B541F2783EC2F2000EDEF82C
:106090001C3023B39EF80820022A15D1DEF82C20EC
:1060A000EAB15870481C1CD0DEF834404FF0000CA8
:1060B0004CB300222046C469A1422FD3091B0469B6
:1060C0000246002CF6D11FE0D86840B19968816083
:1060D0009968002918BFC8600020D86010BD002052
:1060E00010BD0EF138040022214600BF10460A6898
:1060F00002F11001002AF9D14FF0FF31D9610021DE
:10610000C3E9041005E000200EF13404D961C3E9AD
:1061100004C0002818BF00F110040EE00EF1340492
:10612000002AD961C3E9040218BF02F110042360F8
:1061300000F11404C269511AC1612360DEF82C0019
:1061400048B181680029CEF82C101CBF0EF1240242
:10615000CA600021C16002214170CEF82000FFF723
:106160006FFF012010BD000010B590F8223003F041
:10617000100C602383EA8C0C836B4CF8031041F203
:10618000783CC3694469C2F2000C591C16D01CB992
:10619000DCF83410814225D1D0F810E0BEF1000FB8
:1061A0001FBFDEF81C101944CEF81C10CEF81440A6
:1061B00018BF44698CB1C4F810E00BE01CB9DCF8DE
:1061C000381081420ED10369002B1CBF5C61446909
:1061D00034B123610021416104E0CCF834E001E0F6
:1061E000CCF83830012A04BFBDE81040FFF7A0BD4D
:1061F00041F2783201214170C2F2000290F920C0D0
:10620000D36A02F1240153B10A4600BF194691F93D
:106210002030634509DB8B680A46002BF6D100224B
:10622000C0E902210831086010BDC0E902120C313A
:106230009060086010BD0000B0B5FFF709FD41F2A5
:106240007835C2F20005D5E90401013041F10001C1
:10625000C5E9040100F02CF8FFF726FD0020FFF748
:1062600067FDA96C19B32A6A286C90421CBFC5E966
:106270001021B0BD696C11B10139696417D1297A57
:10628000022914D1EC6A94B190F8200094F82010FF
:10629000814218BFB0BD2046FFF720FE286CFFF7F3
:1062A000A1FE2046FFF7E4FE2C64A86C6864B0BD34
:1062B0002DE9F04141F27835C2F20005EC6C002C7A
:1062C00049D020690138206145D14FF0000805F11F
:1062D0004C070126E0680022002300281CBFA168AB
:1062E0008160E864686D04F11801FFF789F918B15D
:1062F0000320214605F014F8E07801280ED1EB6C5C
:1063000060696BB1002200BF19460B6998420CD33B
:10631000C01ACB680A46002BF6D102E0667012E084
:106320000021C4E90218206107E0C4E902212061CC
:106330000B69181A08618C6011460029384618BF8D
:1063400001F10C000460EC6C002C08BFBDE8F0818A
:1063500020690028BED0BDE8F081000046F6015C4F
:10636000C0F6000C00DF00BFFEE70000EFF305837E
:106370002BB9EFF3108313B9EFF311830BB10020A6
:10638000704746F6BD5CC0F6000CEFF3148313F0C3
:10639000020F0AD113F0040FEFF308830CBF203B68
:1063A000683B23F0070383F3098800DF7047000090
:1063B000EFF3058129B9EFF3108111B9EFF31181E2
:1063C00011B16FF00500704746F6FD7CC0F6000C79
:1063D00000DF7047014629B180B51320FFF752FE58
:1063E000BDE880400020704741F27830C2F20000E2
:1063F000007A70472DE9F04141F27837C2F2000788
:10640000387A40B101281CBF4FF0FF30BDE8F08161
:106410000020BDE8F08107F10800A021FEF76BF82D
:106420004BF29856C0F60006706D4828C0F0B48054
:10643000F06800281CBF318A002900F0AD80386662
:10644000A7F85810B068D6E90B41B8642046FFF7AA
:10645000D5F9002818BFC7F88440D6E90541D6E928
:1064600007582046FFF7CAF90028D7F884102846B5
:1064700018BF2146B9674146FFF7C0F9D7F8841025
:10648000002818BF2946F967D6E909412046FFF7D9
:10649000B5F9D7F88410002818BF2146746BC7F8E7
:1064A00080104CB12168D4E902232046FFF712FA8C
:1064B000002818BFC7F88840B46B4CB12168D4E9F4
:1064C00002232046FFF706FA002818BFC7F88C40C1
:1064D000F46B4CB12168D4E902232046FFF7FAF9A6
:1064E000002818BFC7F89040346C4CB12168D4E93B
:1064F00002232046FFF7EEF9002818BFC7F89440A2
:10650000746C4CB12168D4E902232046FFF7E2F90C
:10651000002818BFC7F89840B46C4CB12168D4E982
:1065200002232046FFF7D6F9002818BFC7F89C4081
:10653000F46C4CB12168D4E902232046FFF7CAF974
:10654000002818BFC7F8A040346D4CB12168D4E9C9
:1065500002232046FFF7BEF9002818BFC7F8A44061
:106560004EF62250FF21CEF200000170017850F863
:10657000162C81F0FF01C2F30222B1FA81F1C1F1C0
:1065800020018A4228BF511CFE2202FA01F100F8C4
:10659000031C012038723BE74FF0FF30BDE8F0816B
:1065A00010B541F27834C2F20004207A01283FD1BC
:1065B000206B68B94BF298500021C0F60000826D44
:1065C0004BF22330C0F6000000F0F8FB206378B3F4
:1065D00004F12400FFF758FC50B3FFF749FD4BF2DC
:1065E0009850C0F60000007810F0010F0CBF032097
:1065F000022080F3148841F25030C2F2000000689B
:10660000E060FFF733FBA06100280BDB00F01F0107
:106610000122401102FA01F14EF20012CEF2000204
:1066200042F82010FFF71AFB02202072002010BD54
:106630004FF0FF3010BD00002DE9F04F81B004464F
:10664000994690460F466FF00306002C18BF002FA6
:1066500040D0207808283DD16078002835D004F15A
:10666000280656E8000F10B9BFF32F8F04E0411E33
:1066700046E8001202B1F4E788B1A2465AF82C5F4E
:106680006DB10120A91CD1E84F2FC1E8430F03B120
:10669000F9E712F0FF0F21D0AD68002DF2D1B9F16A
:1066A000000F15D041F27830C2F20000C1692046D7
:1066B000FFF7F8FB83204946FFF7E4FCEFF309807E
:1066C0006FF00106C0E9027804E06FF0020601E015
:1066D0006FF00206304601B0BDE8F08FD5E9010148
:1066E000524604F13009B346002818BF00F10802F1
:1066F00011604A46D5E90101002918BF0A1D05F1BC
:106700000C0110603846626AFDF786FEB8F1000F92
:1067100004F10C074FF0000629461CBFE87888F802
:1067200000006E703846FFF7A7F8A0680028D1D0A7
:10673000407893282ED13846FFF778F80546002692
:10674000002DC7D02046FFF79FFB002101220746FE
:10675000FFF70AFD3846FFF769FC0746626A05F154
:106760000C00B968FDF758FE40F207102880AE70A3
:10677000F868E870236B7BB10021C2B21846C37879
:1067800093420FD243680146002BF7D10021C5E99F
:1067900001100CE000269DE70020C5E90100CAF8C1
:1067A00000500AE0C5E9010100F1080A0846002886
:1067B000CAF8005018BF00F104095B46C9F8005040
:1067C000002653E8000F411C43E8001202B1F8E72D
:1067D00080E700002DE9F04F81B004460026002C30
:1067E00018BF002900F0A2800331B4FA84F021F030
:1067F000030707F10C05B5FA85F10844202801D2FA
:10680000002693E005FB04F852B19068D2F800A08E
:10681000D2E9049190B110F0030F56D0002685E024
:106820004FF0000A4FF0000941F27831C2F2000146
:10683000D1F8A40038B1FEF7F9FF0AE0D268002AC7
:1068400048D0002672E0D1F8840034210122FEF7FE
:1068500071FF0646BEB34FF0010BB9F1000F13D123
:1068600041F2783041460022C2F20000D0F88000A8
:10687000FEF760FF8146B9F1000F3FD04846414620
:10688000FDF717FE4BF0020B082021462A464B4627
:10689000307001207070002086F802B0C6F804A0A5
:1068A000B060C6E90970C6E90B0006F10C00FFF7FD
:1068B00011F841F2783045F62511C2F20000C0F619
:1068C0000001416732E0002630E0D268342A01D26C
:1068D00000262BE0B9F1000F06D00026414525D354
:1068E00019F0030104D021E04FF000090026E9B9B6
:1068F000002899D04FF0000B0646AEE741F2783001
:10690000BBF1000FC2F2000008D00146D1F8A4008C
:1069100030B13146FEF7B0FF002607E0002605E063
:10692000D1F884003146FEF73DFF0026304601B025
:10693000BDE8F08F2DE9F04104461D4690460E4615
:106940006FF00307002C18BF002E5CD020780828B9
:1069500059D16078002859D0A068C8B14078832800
:1069600016D12046FFF790FA0021012205460027A4
:10697000FFF7FAFB2846FFF759FB0546626A3146E6
:10698000A868FDF749FDE868E8B380F8008059E0A1
:1069900004F10C00FEF74AFF07460FB3626A07F1E5
:1069A0000C003146FDF738FD07200021387001202A
:1069B0007870B97087F80380204650F8303F53B3A1
:1069C000002200BF1946CB78434528D24B680A46BF
:1069D000002BF7D1002204F12C03C7E9012123E0A9
:1069E000A5B141F27830C2F20000C1692046FFF73C
:1069F00059FA93202946FFF745FBEFF309806FF022
:106A00000107C0E902683846BDE8F0816FF002076F
:106A10003846BDE8F081C7E90111E76208E0C7E93F
:106A2000011201F10803114600291F6018BF081D5B
:106A3000076004F1280050E8001F4A1C40E80023CA
:106A400003B1F8E700273846BDE8F08170B5044689
:106A500041F278300D46C2F20000C669002E04BF34
:106A60004FF0FF3070BD5CB32078042828D16078E7
:106A7000002804BF6FF0020070BD207E18B3E178DB
:106A800011F0010F02D0E268B24225D055B311F0E7
:106A9000020F0AD0E06896F9201090F920208A426F
:106AA000BCBF80F82010FFF727FA20463146FFF7D9
:106AB000F9F953202946FFF7E5FA6FF0010070BDA0
:106AC0006FF0030070BDE6600121F06A6061002094
:106AD0002061F462217670BDFF281FBF013020764F
:106AE000002070BD6FF0020070BD000010B50446BC
:106AF0008CB3207804282ED16078002804BF6FF072
:106B0000020010BD00206070207E002840D0616926
:106B1000E06800291CBF22690A61226902F114039E
:106B2000002A08BF00F12C031960E17811F0020F70
:106B300028D0C26A90F821C001E000BF52696AB152
:106B40009368002BFAD093F920304FFA8CF18B42E6
:106B5000C8BF9C46F2E76FF0030010BD90F820100C
:106B60005FFA8CF291420DD080F820C0FFF7C4F993
:106B700008E000BF2046FFF787F96FF0020100220E
:106B8000FFF7F2FAA0680028F4D10020FFF7D0F850
:106B9000A07810F0010F04BF002010BD41F2783141
:106BA000C2F20001D1F8980020B12146FEF764FE40
:106BB000002010BDD1F884002146FEF7F3FD00202F
:106BC00010BD0000B0B5014659B1D1E90054886844
:106BD00098B110F0030F2BD1CA6800211C2A25D3CD
:106BE00016E00024002541F27831C2F20001D1F80C
:106BF000980028B1FEF71AFE08E0C868C0B9F2E7AD
:106C0000D1F884001C210122FEF794FD80B10121FE
:106C1000042202700122427081700021C47045601C
:106C20000176C0E90411C0E9021101460846B0BD71
:106C300000210846B0BD000070B5044641F278302E
:106C4000C2F20000C069002802BF4FF0FF342046A6
:106C500070BD5CB12178042908D1617811B1E16877
:106C6000814207D06FF00204204670BD6FF003042C
:106C7000204670BD217E0029F4D0013911F0FF0FAC
:106C800021761EBF0024204670BD616900291CBF0B
:106C900022690A61226902F11403002A08BF00F187
:106CA0002C031960E17811F0020F11D0C26A90F83C
:106CB000211000E052694AB19368002BFAD093F991
:106CC00020304DB2AB42C8BF1946F3E780F8201020
:106CD000A06878B12046FFF7D7F8002100220546CA
:106CE0000026FFF741FAE560E86AC4E90460012084
:106CF000EC62207600200024FFF71AF8204670BDD1
:106D0000B0B541F27835C2F20005EC69E4B3E06A4F
:106D1000FEF7E8FEA06918B100210022FFF724FA6F
:106D2000287A022830D1E86A70B3EFF30980A063B3
:106D3000E86A40B181680029E9621CBF05F12402BC
:106D4000CA600021C160022141702862FFF778F912
:106D50000020E861E17811F0010F01D0A16961B173
:106D60006070A07810F0020F13D0216B10F0100F9C
:106D70000BD1A86FFEF716FD0BE004206070002019
:106D8000E060E86BA060EC63B0BDD5F88800FEF76A
:106D900073FDA07810F0010F08BFB0BDD5F88C00CE
:106DA00020B12146BDE8B040FEF766BDD5F88400AD
:106DB0002146BDE8B040FEF7F5BC00002DE9F04FDC
:106DC00083B005466DB172B102F1100B9BE8100A59
:106DD0009068D2E900A7D8B110F0030F2ED000269A
:106DE000EEE00026ECE002914FF001084FF0180BA6
:106DF000002700244FF000094FF0000A41F27831DB
:106E0000C2F20001D1F88C0030B1FEF70FFD09E0AD
:106E1000D268C2B10026D3E0D1F884004421012217
:106E2000FEF788FC06463EB1CDF804A04FF0010AFB
:106E3000E4B1DDF8088061E00026C1E0D268442AB0
:106E400001D20026BCE044B10026B9F1000F00F0E9
:106E5000B78014F0070240F0B380BBF1000F23D0DD
:106E6000ABF10102372A21D90026A9E0B8F1010FC0
:106E700014D141F278314BF29852C2F20001C0F6BF
:106E80000002D1F88800D2F8549048B3FEF7CEFC47
:106E90000446002C18BF4AF0100A27E041F278306F
:106EA000C2F20000806F1CE04FF0180BB9F1000F28
:106EB00008D00026B9F1480FC0F0828019F007020F
:106EC00003D07DE04FF0000901260291002800F078
:106ED0008080CDF804A0B0464FF0000A0646A7E730
:106EE000886F49460022FEF725FC0446DDF808803D
:106EF0005FFA8AF0002C67D040F0020A0120FD21E1
:106F00003070707086F802A0F770019870600020F1
:106F1000C6E90600C6E90400C6E9020086F820B00A
:106F200086F821B086F8221086F82F00C6F82B00CC
:106F3000C6F82700C6F8230009EB0400C6E90C498F
:106F40004038C6E90E0542F6A560CEF25A20206010
:106F50004BF29850C0F60000007810F0040F01D1F9
:106F6000B76B12E0271D1120B0EB990F0DD04FEA3F
:106F700099096FF04300CC2200EB89013846FDF7F8
:106F800090FA04EB8900A0F1400738463421FDF760
:106F9000B2FA46F25D304FF08071C0F60000C7E9EA
:106FA0000D05F96341F2783045F65971C7F8208034
:106FB000C2F20000C0F6000141663046FEF7B8FE9E
:106FC000304603B0BDE8F08F10F0010F03D100266A
:106FD000F6E7B04612E741F27831C2F20001D1F88B
:106FE0008C0020B13146FEF747FC0026E8E7D1F8D7
:106FF00084003146FEF7D6FB0026E1E7F0B581B00C
:107000000446BCB12078012814D1607800F00F004C
:10701000032813D0022848D0012871D1E068002845
:1070200043D0A1688160A168002918BFC860002012
:10703000E0603AE06FF0030001B0F0BDE06838B105
:10704000A1688160A168002918BFC8600020E060C5
:10705000E3696069591C14D041F278310028C2F20A
:10706000000102D14A6BA2421FD12269002A1FBF30
:10707000D7693B44D361506118BF606990B94A63D6
:1070800013E041F278310028C2F2000102D18A6B8C
:10709000A2420AD12269002A1CBF506160690028FF
:1070A00000F0A480026100206061E06AFEF71AFD32
:1070B000A06918B100210022FFF756F841F2783795
:1070C0006078C2F200073A7A02281DD1022A17D14D
:1070D000F86AA8B1EFF30980A063F86A40B181684B
:1070E0000029F9621CBF07F12402CA600021C160B7
:1070F000022141703862FEF7A3FF0020F86141E0F1
:107100006FF0020001B0F0BDF969F86A022A39D1C6
:10711000002918BF002835D091F9202090F920309F
:1071200093422FDDC36873B186689E608668002E27
:1071300018BFF3600023C3600123FD6A4B702DB9B3
:1071400007F124030DE0012305464B7007F12406E7
:107150002B4693F92050954209DD9D681E46002D6F
:10716000F6D10022C1E9022303F1080204E0C1E9DB
:107170000236B16003F10C021160022141703862E5
:10718000FEF75EFFE07810F0010F01D0A069E0B1DA
:1071900000206070A07810F0020F0BD0216B10F06F
:1071A000100F03D1B86FFEF7FDFA03E0D7F888009F
:1071B000FEF762FBA07810F0010F14D0D7F88C0016
:1071C00060B12146FEF758FB0DE0042060700020FE
:1071D000E060F96BA160FC6301B0F0BDD7F88400FA
:1071E0002146FEF7DFFA002001B0F0BD8A635CE7BC
:1071F0005FEA400C08BF91F0000F4FEA8C234FEA82
:10720000C12243EA51514FEA1C5018BF00F5F0402B
:107210004FEA300018BF41F000415FEA6C5C00F0BB
:107220002980BCF1FF3F08BF40F080407047130C3D
:1072300006BF12044FF0100C4FF0000C130E04BFE9
:1072400012020CF1080C130F04BF12010CF1040C14
:10725000930F04BF92000CF1020CD30F04BF520035
:107260000CF1010C11464FF00002A0F11F00A0EB41
:107270000C00704711F0004F08BF704731F000411B
:107280003FF4D5AF0B0C06BF09044FF0100C4FF0C4
:10729000000C0B0E04BF09020CF1080C0B0F04BF0D
:1072A00009010CF1040C8B0F04BF89000CF1020CD6
:1072B000CB0F04BF49000CF1010CCCF12003A0EB73
:1072C0000C0022FA03F302FA0CF241EA030100F186
:1072D0000100704720F07F4C80EA030023F07F47D5
:1072E000ACEB070303F57C5300F0004003F1FF0310
:1072F0002DE980494FEA154B09B44FEA144325EABA
:107300000B4E24EA03480FF2042606EB1327490824
:107310003E785FEA320203FB0667C7F5000707FB0A
:1073200006F64FEA54374FEAD64606F1020607FB47
:10733000066CCCF1005C4FEA1C472CEA074C07FBBB
:1073400006F40CFB06F504EB15464FEA961634BF1F
:1073500000204FF000404FEAD13706FB07FC4FEA10
:107360001C4C0CFB0BF7D21B03FB0CF761EB07016A
:107370000CFB0EF7B0EB074072EB17420CFB08F763
:1073800034BFA2EB0742B2EB074261EB17414FEA71
:107390000C444FEA910706FB07FC4FEA1C4C0CFB20
:1073A0000BF7B0EBC74072EB573203FB0CF734BF5F
:1073B000A2EBC742B2EBC74261EB57310CFB0EF7B1
:1073C000B0EBC70072EB57720CFB08F734BFA2EBAF
:1073D000C702B2EBC70261EB5771039F4FEA8161AD
:1073E00041EA921104EBCC044FEAD1374FEA8262B2
:1073F00006FB07FC42EA90124FEA80604FEA1C4C01
:107400000CFB0BF7D21B03FB0CF761EB07010CFB2A
:107410000EF7B0EB074072EB17420CFB08F734BFD6
:10742000A2EB0742B2EB074261EB17414FEA8C55E2
:107430004FEA910704EB9C2406FB07FC4FEA1C4C27
:107440000CFB0BF7B0EBC74072EB573203FB0CF7AA
:1074500034BFA2EBC742B2EBC74261EB57310CFB22
:107460000EF7B0EBC70072EB57720CFB08F734BF96
:10747000A2EBC702B2EBC70261EB577115EB4C25CB
:107480004FEA816141EA92114FEA82624FEAD137B5
:1074900042EA901206FB07FC44F100044FEA8060C8
:1074A0004FEA1C4C0CFB0BF7D21B03FB0CF761EBF8
:1074B00007010CFB0EF7B0EB074072EB17420CFB19
:1074C00008F734BFA2EB0742B2EB074261EB17416A
:1074D00015EB1C154FEA813141EA92414FEA8232A5
:1074E00042EA90424FEA80304FEA0C7644F10004C1
:1074F00048EA03434EEA0B484FF0000EB2EB080C8B
:1075000071EB030724BF624639464EEB0E0E4FF077
:10751000000B0018524149414BEB0B0BB2EB080C2E
:1075200071EB03077BF1000B24BF624639464EEB3B
:107530000E0E4FF0000B0018524149414BEB0B0B64
:10754000B2EB080C71EB03077BF1000B24BF624622
:1075500039464EEB0E0E51EA020718BF46F00106FF
:1075600016EB0E7655F1000254F1000103D5BDE88B
:107570008901BDE80088BDE88901BDE80048B61969
:10758000524141EB0101A3F10103704780807F7EEE
:107590007D7C7B7A79787776767574737271717089
:1075A0006F6E6E6D6C6C6B6A6A696868676666653B
:1075B0006464636362616160605F5F5E5E5D5D5CC9
:1075C0005C5B5B5A5A59595858575756565555553A
:1075D0005454535352525251515050504F4F4F4E9A
:1075E0004E4D4D4D4C4C4C4B4B4B4A4A4A494949E8
:1075F000484848474747474646464545454444442A
:10760000444343434342424242414141002B26D43A
:10761000770021D01CB54FEA370703B44FF01000B4
:107620004FF010014FF000000FBCBDE810400BF10F
:10763000010BBBF1010F08BF5FEA170722BF12F170
:10764000010211F101014FF0004143F1000300F08C
:10765000004043EA00007047F9D35708DAE746EAEA
:10766000064613F1400F4FEA16461FDD13F1200FB7
:10767000DFBF16430A46002120335B42C8D0C3F166
:10768000200746EA064602FA07F74FEA164646EA98
:107690000706C3F1200722FA03F201FA07F721FADD
:1076A00003F14FF0000342EA0702B1E746EA02069F
:1076B00046EA06464FEA164646EA0106BCBF46EAD7
:1076C0000646360C4FF000034FF000024FF0000169
:1076D0009EE72DE9C048934630B491E8380007C8CA
:1076E00031EA400C48BF34EA430C03D5FFF7F2FD02
:1076F000FFF78CFFF0BCBDE800882DE9C048934639
:1077000030B491E8380007C810F0804F08BF13F07C
:10771000804F03D100F005F8FFF778FFF0BCBDE81B
:10772000008820F07F4780EA030023F07F4C07EBBE
:107730000C03A3F57C5300F00040A3F1FE0392F08C
:10774000000F00F0B38095F0000F00F077802DE976
:1077500001494FEA11404FEA144621EA004800FB74
:1077600006FC24EA064708FB06F607FB08F800FBC0
:1077700007F718EB06484CEB164C4FEA124B18EB88
:1077800007484FEA15464CEB174022EA0B4E0BFB1D
:1077900006FC25EA06470EFB06F607FB0EFE0BFB72
:1077A00007F71EEB064E4CEB164C4FF000061EEB97
:1077B000074E4CEB174B18EB0B0840F1000018EB91
:1077C0000E0B58EB000840F100008F1A4FF000013B
:1077D0003CBFC943661B14BFB5EB040C00213CBF82
:1077E000C943F61B4FEA17444EEA8E0E27EA0445BA
:1077F0004FEA1C4704FB07622CEA074C05FB07F71E
:107800000CFB05F604FB0CFC16EB074642EB17429B
:1078100016EB0C4642EB1C421BEB060658EB020231
:10782000414146EA9E0601D5BDE80189B61952419B
:1078300041EB0101A3F10103BDE801894FEA1445C1
:107840004FEA114724EA054621EA074C05FB07F4F5
:1078500006FB07F70CFB06F105FB0CFC11EB0741DF
:1078600044EB17444FEA124711EB0C4144EB1C4424
:1078700022EA074C05FB07F206FB07F70CFB06F6AE
:1078800005FB0CFC16EB074642EB174216EB0C46C9
:1078900042EB1C456A1854F1000148BF7047B61905
:1078A000524141EB0101A3F10103704795F0000F34
:1078B00037D04FEA11424FEA144721EA024624EA40
:1078C000074C02FB07F106FB07F70CFB06F402FB73
:1078D0000CFC14EB074441EB17414FEA154714EB3E
:1078E0000C4441EB1C4125EA074C02FB07F506FB63
:1078F00007F70CFB06F602FB0CFC16EB074645EB04
:10790000174516EB0C4645EB1C42121951F10001CC
:1079100048BF7047B619524141EB0101A3F1010381
:1079200070474FEA14454FEA114724EA054621EA19
:10793000074C05FB07F106FB07F70CFB06F24FF0BF
:10794000000605FB0CFC12EB074241EB174112EB62
:107950000C4251EB1C4148BF7047921841EB0101AA
:10796000A3F10103704700000CB5002227490092E3
:107970000192086840F4803008604FF4A043086822
:1079800000F4003001900098401C0090019810B95C
:1079900000989842F3D10868800334D50120019003
:1079A0001A484030026842F080520260184802686B
:1079B00042F44042026015480830026802600268E2
:1079C00042F400420260026842F4A0520260031FC7
:1079D000104A1A600A6842F080720A600A689201CE
:1079E000FCD50D4940F205720A60016821F00301DF
:1079F0000160016841F0020101600168C1F3810189
:107A00000229FAD10CBD01920CBD000000380240E1
:107A10000070004008544007003C0240114810B577
:107A2000016841F4700101600F48016841F00101F3
:107A300001600D4A00210832116002680B4B1A40A8
:107A40000260031D0A4A1A60026822F48022026062
:107A500005480C300160FFF787FF0249054880396F
:107A6000086010BD88ED00E000380240FFFFF6FE20
:107A700010300024004000082DE9F0412248018820
:107A8000C9063ED5808821484069214DC0F5007463
:107A9000204F29688C4206D9A7F510700844611A56
:107AA000C7E9010117E01B4A0020403AA2F5007324
:107AB0004FF4007C03E05E5C1654401C491C614599
:107AC000F9D3002103E05E5C1654401C491CA1421E
:107AD000F9D3C7E9012010480078C00709D10E4842
:107AE00003F09CFB28B10D4801F0E4FF0A48AFF316
:107AF00000800A4800230749806C1A46FDF780FD84
:107B00002C60BDE8F08100000050004000600240A1
:107B100068130020681900205C1400209850002091
:107B20002DE9F04122480088C0063FD52048001DBD
:107B300000882048D0F88C001F4DC0F500741F4FFE
:107B400029688C4204D9A7F510704218601A15E014
:107B50001A4A0020403AA2F500734FF4007C03E07B
:107B60005E5C1654401C491C6145F9D3002103E0BA
:107B70005E5C1654401C491CA142F9D3C7E90120A0
:107B80000F480078C00709D10D4803F047FB28B122
:107B90000C4802F041FC0A48AFF30080094800237A
:107BA000064900691A46FDF72BFD2C60BDE8F081FF
:107BB000004400400060024064130020B81600201A
:107BC00068140020386D00202DE9F041214800881C
:107BD000C0063DD51F48001D00881F48C06A1F4DC4
:107BE000C0F500741E4F29688C4204D9A7F5407077
:107BF0004218601A14E01B4A0020A2F500734FF4EB
:107C0000007C03E05E5C1654401C491C6145F9D3BE
:107C1000002103E05E5C1654401C491CA142F9D3CC
:107C2000C7E9012010480078C00709D10E4803F0C9
:107C3000F5FA28B10D4802F033FA0B48AFF3008093
:107C40000A4800230649806C1A46FDF7D9FC2C60CF
:107C5000BDE8F08100480040006002406C13002045
:107C6000D81C0020D81B0020641400205062002083
:107C7000124810B5016841F0040101601048016824
:107C800021F470610160016841F4A06101600C4859
:107C90000C30016821F470610160001F016841F43B
:107CA00070610160001F016821F03001016000F087
:107CB00013F8034910201A31088010BD30380240F3
:107CC0000008024010B5002302E0CC5CC4545B1CE9
:107CD0009342FAD310BD000030B53648016841F038
:107CE000130101603448016821F030010160C1686E
:107CF00021F03001C160016821F00C0101600168D0
:107D000041F004010160816841F00C018160C168AB
:107D100021F00C01C160416821F002014160274956
:107D2000086820F440300860086840F4803008603B
:107D3000224A0832106840F4403010600B1D186869
:107D400020F480701860141D206820F440302060FA
:107D50001B48056825F440350560056845F4803505
:107D60000560856845F440358560456825F4807573
:107D70004560C56825F44035C5600D6825F440456B
:107D80000D600D6845F480450D60216821F4404187
:107D90002160116841F440411160196821F08001AF
:107DA00019608115418305481A30018080210180C6
:107DB00030BD0000303802400000024000040240A4
:107DC000001002402DE9F043DFF848C000F0070042
:107DD0004FF4807660F31F31ACF818600E4F3E8090
:107DE000002002230D4C80224FF6FF79BD1C5FEA74
:107DF000014801D5238300E063833A8009EA410109
:107E00002A80401C1028F2D3ACF81A602E80BDE8FE
:107E1000F0830000001002401804024000000240FD
:107E200010B504464068617A0144204600F00AF823
:107E30000246617A60680144206803682046BDE814
:107E40001040184730B5E1220A70427A521D4A703C
:107E5000027A8A7000231A4608E044688D18A45CF0
:107E6000EC704468A45C6340521C92B2447A944221
:107E7000F3D8E4B2CA1C091DA354437AEF225A5422
:107E8000407A401D30BD0FB410B5044604AA4068C6
:107E90000399FCF7AFFA82B2D4E9000103682046E7
:107EA000984710BC5DF814FB437A4268D154417A7C
:107EB000491C4172704710B5447A4368C1F3C61239
:107EC00001F07F011A55427A521CD2B242724368C5
:107ED0009954417A491C417210BD017200214172CE
:107EE00070470000084810B50078C00709D106485F
:107EF00003F094F928B1054800F024F80248AFF3E4
:107F00000080024810BD000020140020241400202E
:107F10000A4810B50078C00709D1084803F07EF977
:107F200028B1074801F07EF80448AFF30080044808
:107F300001F050F840F38010401C10BD3C140020AC
:107F40000049002011490A6842F008020A601049FD
:107F50000A6822F440720A600A6842F480720A6079
:107F60000B490C310A6822F440720A60091F0A6842
:107F700042F440720A60091F0A6822F010020A6087
:107F80000349102218310A800A80704730380240B5
:107F9000000C02402DE9FF470C46054600F0C8FEE4
:107FA0004FF41049494600F00FFE200E8DF80000F6
:107FB000200C8DF80100200A8DF802007C21E7B228
:107FC00005F132064FF000088DF804108DF80370AB
:107FD00001A80296ADF80C80C4F3475102F004F9F1
:107FE000C4F3873102F000F9C4F3C71102F0FCF8C2
:107FF000394602F0F9F8294602F0D4F8044602F0B6
:1080000039F8016822460B682946984700F090FE2F
:1080100004236A46494600F06DFD00F089FE042302
:108020006A46494600F09AFE7B218DF8041001A8AB
:108030000296ADF80C809DF8001002F0D5F89DF87E
:10804000011002F0D1F89DF8021002F0CDF89DF871
:10805000031002F0C9F8294602F0A4F8044602F021
:1080600009F8016822460B6829469847BDE8FF8752
:10807000FEB5054600F580540020E4E91A01208190
:10808000608101F6FF70C0F30F362846FFF782FFCC
:1080900005F13201684602F0C0F87E2101703146D8
:1080A00002F0A9F8294602F07DF8044601F0E2FF4B
:1080B000016822460B68294698474FF42045002462
:1080C0000C4F14E03878C00709D10A4803F0A6F82D
:1080D00028B1094800F06AFE0648AFF30080064860
:1080E000294600F071FD641CA4B205F58055B44228
:1080F000E8D3FEBD30140020003900202DE9FE43F6
:108100001D461346064600F5805421B1B4F87000B0
:10811000401C88426CD1A4F87010A16E06F1680969
:1081200001EB09002A461946FFF7CCFDA06E4FF07F
:10813000000828444FF42047A066B0F5805F0FD1B7
:1081400000F0F6FD54F8683F4A46618907EB0131BB
:1081500000F0D0FC6089401C6081404644F868898A
:10816000B4F8721000EB0135E06EA8423DD100F08A
:10817000DFFD54F8683F4A46618907EB013100F0A2
:10818000B9FC608906F13201401C6081C4F80080AE
:1081900001917A218DF800106846ADF80880290E0B
:1081A00002F022F8C5F3074102F01EF8C5F30721DB
:1081B00002F01AF8E9B202F017F8314601F0F2FFC6
:1081C000044601F057FF016822460B683146984784
:1081D000BFF34F8F07490868074A00F4E060104377
:1081E0000860BFF34F8F00BFFDE70120BDE8FE83AD
:1081F0000020FBE70CED00E00400FA05084810B58C
:108200000078C00709D1064803F008F828B10548EE
:1082100000F00AF80248AFF30080024810BD0000E9
:1082200028140020A81D002070470160002100F1E3
:108230000802416082EC030A416181617047026873
:10824000511A426901F113038A1A272B02D243689B
:108250000B444360416190ED010AD0ED030A90EDBB
:10826000021AB8EEC00A20EE800A00EE901AF8EE6C
:10827000E00A01EE200A00EE902A90ED041AF8EED2
:10828000E00A01EE200ABDEEC00A10EE100A7047A7
:108290002DE9F04148680D460321C4780779284646
:1082A00002F071FF064614B1012C0DD106E001F079
:1082B000B7FA3246394601F0D5F905E001F0B0FAD7
:1082C0003246394601F032FA286801210268284610
:1082D000BDE8F041104770B548680D46C47806798E
:1082E00000F026FD04EB840106EB410150F821006B
:1082F0000321040C86B2284602F045FF054601F032
:108300008FFA2A46322101F0ADF902F099FB2B4693
:108310000022232102F078FA02F05CFD0A232A46AB
:1083200040F2062102F0E2FB02F0C8FE01232A46D9
:10833000314602F097FD02F04DFD01232A46214609
:1083400002F0D4FB02F0BAFE02F020FE02F078FB4D
:108350002B46BDE870404FF41672232102F01CBB7F
:108360002DE9FE438846814602F034FD02F00CFD03
:10837000074602F0A3FE02F07BFE0646D8F8040092
:10838000C578047900F0D4FC05EB850204EB4202C9
:1083900006EB074140F8221000F0CAFC00F0BAFCDE
:1083A00009F6AA21684601F038FF872101702946A5
:1083B00001F01AFF214601F017FF394601F01BFFBB
:1083C000314601F018FF09F678210C4601F0EAFE6B
:1083D0000246D8F800002146836840469847BDE829
:1083E000FE832DE9F0410C460121204602F0CBFE30
:1083F00007460321204602F0C6FE06460521204618
:1084000002F0C1FE054602F059FE01232A4631461C
:1084100002F028FD02F0DEFC01232A46394602F074
:1084200065FB2068012102682046BDE8F041104745
:108430002DE9FE43074648680E46C578047900F0EA
:1084400077FC05EB850104EB410150F8210007F6AC
:10845000AA214FEA10491FFA80F8684601F0DDFEB4
:108460008B210170294601F0BFFE214601F0BCFEC0
:10847000494601F0C0FE414601F0BDFE07F67821F5
:108480000C4601F08FFE0246306821468368304674
:108490009847BDE8FE8300002DE9FE438846044668
:1084A0000121404602F06FFE07460321404602F0DC
:1084B0006AFE064602F08EFC4FF080410546896B4D
:1084C000781AA86300F034FCA96B016002F0F6FD95
:1084D000124905460968701AA86300F029FCA96BC7
:1084E000416000F025FC00F015FC04F6AA21684666
:1084F00001F093FE81210170002101F075FE04F668
:1085000078210C4601F04EFE0246D8F800002146C4
:10851000836840469847BDE8FE830000380C004061
:108520002DE9F04148680D460321C47807792846B3
:1085300002F029FE80460521284602F024FE064668
:1085400014B1012C0FD107E002F07AFA334642460B
:10855000394602F059F906E002F072FA3346424613
:10856000394602F019FA2868012102682846BDE858
:10857000F041104770B548680C461025C27812B11A
:10858000012A09D103E0FFF7ADFC074803E0FFF73C
:10859000A9FC0548801E058020680121026820464C
:1085A000BDE87040104700001A0C02402DE9FE4360
:1085B000074648680E460321C5780479304602F024
:1085C000E2FD81460521304602F0DDFD804600F0E7
:1085D000AFFB05EB850204EB420208EB094140F8D2
:1085E000221000F0A5FB00F095FB07F6AA216846D3
:1085F00001F013FE8C210170294601F0F5FD2146A2
:1086000001F0F2FD07F678210C4601F0CBFD0246A1
:1086100030682146836830469847BDE8FE830000F5
:108620000EB504463048009000200190451E02908F
:1086300069462B460022D4F88000FCF765FF0198BC
:10864000807810284AD2DFE800F049080D12171C84
:108650002126492B30353A49493F69462046FFF7E4
:108660001BFF3BE069462046FFF7BBFE36E069464C
:108670002046FFF70DFE31E069462046FFF750FF28
:108680002CE069462046FFF775FF27E06946204643
:1086900000F053F822E069462046FFF761FE1DE036
:1086A0006946204600F024F818E069462046FFF7A6
:1086B00012FE13E069462046FFF7BAFE0EE0694657
:1086C0002046FFF773FF09E00848082606804FF4AC
:1086D0007A70FCF7A5FE0548801E068000F096FB28
:1086E00000F08EFBA4E7000034B500081A0C02402D
:1086F00070B50846012102F046FD044602F0A0F9DB
:1087000023460022232102F07FF802F063FB40F2AF
:1087100006250A232246294602F0E8F902F0CEFC9B
:108720000A232246294602F09DFB01F079F82246F1
:10873000BDE87040322100F0F9BF2DE9F04F8046CE
:10874000087A0E46401FC0B2FF2101EB5000C7B2AD
:108750008DB00121304602F016FD019008F6AA20E6
:1087600000240390323840F2062B029035E00320BB
:1087700000EB4400C1B27068891C10F801A004210C
:1087800001EB4401C9B2891C002510F80190009644
:108790004A4651464046019B00F066F868B36D1C9E
:1087A000EDB2022DF3D307A8039901F036FD86211F
:1087B0000170514601F018FD494601F015FD0121F7
:1087C00001F012FD029901F0EDFC024630680299B9
:1087D000836830469847641CE4B2BC42C7D304A8FF
:1087E000039901F01AFD86210170514601F0FCFC4D
:1087F000494601F0F9FC02210CE00AA8039901F0B6
:108800000CFD86210170514601F0EEFC494601F055
:10881000EBFC002101F0E8FC029901F0C3FC0246E8
:108820003068029983683046984702F0D3FA0A23E9
:108830005C465946019A02F059F902F03FFC0A23BE
:108840002146019A02F00EFB02F0FAF800222321E1
:10885000019B01F0D9FF00F0E3FF3221019A00F003
:1088600065FF0DB0BDE8F08F2DE9F0479A469046C0
:108870008946089C00F05CFA014609EB890008EB88
:10888000400051F82000050C86B202F0D9F853469A
:108890000022232101F0B8FF002836D102F09AFA15
:1088A00040F206270A235246394602F01FF918B152
:1088B00020680123456824E000F0B2FF52463221CF
:1088C00000F0D0FE58B100F0A1FA00F07DFA00F0FF
:1088D000A7FF5246322100F0C5FE0028DDD102F08C
:1088E000EDFB01235246314602F0BCFA70B102F0B2
:1088F000E5FB0A235246394602F0B4FA2068022307
:108900004568424649462046A84782E002F062FA9E
:1089100001235246294602F0E9F850B102F05AFA12
:108920000A235246394602F0E1F8206803234568DD
:10893000E7E702F085F853464FF4C872232101F0AF
:10894000FBFE70B100F062FA00F03EFA02F078F837
:1089500053460022232101F057FF20680423456875
:10896000CFE7FFF7BFFA48481025058002F068F806
:1089700053464FF47A72232101F0F6FE424EB61EA2
:1089800070B100F043FA00F01FFAFFF7ABFA358040
:1089900002F056F853460022232101F035FF38E05B
:1089A00002F04EF853460022232101F02DFF38B18A
:1089B00000F02CFA00F008FAFFF794FA358028E06E
:1089C000FFF790FAFFF7A4FAF0B302F003FA0523D9
:1089D0005246394602F08AF818B1206807234768E2
:1089E0000AE002F06BFB05235246394602F03AFAE0
:1089F00090B1206808234768424649462046B84758
:108A0000FFF770FA358000F00BFF5246322100F07C
:108A10008DFE0120BDE8F087FFF764FAFFF778FAD2
:108A200090B102F00DF853464FF41672232101F075
:108A3000B3FFFFF757FA358041F28830FCF7F0FCBE
:108A400020680B23424600E012E045684946204674
:108A5000A84701F0F5FF53460022232101F0D4FE80
:108A600000F0DEFE5246322100F060FE0020D1E729
:108A7000206809234246476849462046B847FFF721
:108A800031FA35800220C5E71A0C0240084810B5BB
:108A90000078C00709D1064802F0C0FB28B105489C
:108AA00000F00AF80248AFF30080024810BD000051
:108AB0002C140020202E002008B5282100914FF40E
:108AC000806300F1D80208A100F0D8FC0C2100F569
:108AD0009B6200913C2304A1803001F0ACFB04496F
:108AE00040F8801D08BD000044656C697665720021
:108AF000F0B400082DE9F04780461D4616460C46A6
:108B000011F0FF0F12D004F1FF0020F0FF00071B4F
:108B1000AF4204D94046BDE8F04700F023B83B46D9
:108B2000404600F01FF83C443E44ED1B2F0A4FF432
:108B300080790CE04B4632462146404600F012F860
:108B400004F58074A5F5807506F580767F1E002FEC
:108B5000F0D1002D03D02B4632462146DAE7BDE89E
:108B6000F08700002DE9F0411D4614460E460746E9
:108B700000F054F81348402303800221384600F0E7
:108B80006DF8C6F30741384600F068F8C6F30721D0
:108B9000384600F063F8F1B201E014F8011B3846E2
:108BA00000F05CF86D1EF8D20648801E038002E0DB
:108BB0000A20FCF735FC384600F03EF8C007F7D134
:108BC000BDE8F0811A04024070B50C46054600F07D
:108BD00025F81148402303802021284600F03EF864
:108BE000C4F30741284600F039F8C4F307212846AA
:108BF00000F034F8E1B2284600F030F80648801E54
:108C0000038002E00A20FCF70BFC284600F014F871
:108C1000C007F7D170BD00001A040240054900B535
:108C200040230B80062100F019F80248801E0380C3
:108C300000BD00001A04024010B507494023044655
:108C40000B80052100F00AF8FF21204600F006F80D
:108C50000149891E0B8010BD1A0402400648028893
:108C60009207FCD5044A121D11800188C907FCD067
:108C70001088C0B270470000083C004020480168DE
:108C800041F0020101601F48016821F47F51016039
:108C9000016841F4D45101601A480C30016821F494
:108CA0007F510160016841F4AA510160001F016811
:108CB00041F47F510160001F016821F078010160DB
:108CC000104820300168104A1140016001680F4AC5
:108CD000114301600A481030016841F4004101600D
:108CE0000B49002008800A4A1C3210800A1D10809F
:108CF0004FF45170088003494020183108807047B4
:108D00003038024000040240FF0F00FF00606600A0
:108D1000003C004010B504460021FFF755FF2246F5
:108D2000BDE810404FF4805300211046FFF7E2BE2B
:108D3000084810B50078C00709D1064802F06EFA5D
:108D400028B1054800F032F80248AFF3008002482D
:108D500010BD00003014002000390020F0B5064698
:108D60001148402514460F46058003213046FFF781
:108D700075FFC7F307413046FFF770FFC7F30721C0
:108D80003046FFF76BFFF9B23046FFF767FF05E0AB
:108D9000FF213046FFF762FF04F8010B5B1EF7D29C
:108DA0000148801E0580F0BD1A04024010B504463B
:108DB000FFF764FF20464FF4805322460021FFF75F
:108DC000CDFF204610BD000070B50C4D10242C8046
:108DD0000A20FCF725FBA81E0480202404800A201A
:108DE000FCF71EFB2C800A20FCF71AFBBDE8704044
:108DF00040F601410020FEF7E5BF00001A080240DE
:108E000001491020088070471A080240084810B530
:108E10000078C00709D1064802F000FA28B10548D9
:108E200000F00AF80248AFF30080024810BD0000CD
:108E3000341400203814002010B50446FEF718FF43
:108E4000024A10211180204610BD00001A0802407D
:108E500010B5044600F018FE0368A28821681B685C
:108E6000BDE810401847F0B5002401608480147AF2
:108E7000641C8480147A641FE6B2E1240C7051688B
:108E80000468897841F08001A170046801796170FB
:108E90000024214610E04D1C2F46EDB2D2F804C04C
:108EA000AD1CD0F800E0C91C1CF805C00EF801C0CC
:108EB0005168495D4C40B9B2B142ECD30168F61C2F
:108EC0005C408B5582880168114401F8024C83880C
:108ED0000268EF211A4402F8011CF0BDFEB51646E7
:108EE00004460A4604F10C0101910021ADF8081076
:108EF0008F218DF800101D466846114601F074F967
:108F0000314601F071F9294601F06EF904F13E0194
:108F10000D4601F047F9044601F068FA016822465F
:108F20000B6829469847FEBD10B5044602F041F98A
:108F3000002825D060688078102821D2DFE800F072
:108F40002008080808080808200808080820200841
:108F50000C480078C00709D10A4802F05FF928B12F
:108F60000948FFF7A9FD0748AFF3008006482146EE
:108F70000023D0F88000BDE810401A46FCF740BB43
:108F800010BD00002C140020202E002070B51446C7
:108F90000D4601F02BFA016822460B682946BDE810
:108FA0007040184770470000084810B50078C007A7
:108FB00009D1064802F032F928B1054800F032F82C
:108FC0000248AFF30080024810BD00003C140020AE
:108FD0000049002070B5054600240068611EFCF7BA
:108FE00051FB0F4A4FF40040508310831069400436
:108FF00000D5012400214FF40050108363061C0E9D
:1090000013695B0401D5641CE4B25083491C072931
:10901000F3D32868FCF77CFB6006000E70BD0000EF
:109020000010024010B513A100F02AFC15490446B7
:10903000086840F0100008601349086820F07C4080
:109040000860086840F088400860C86820F07C40EC
:10905000C860C86840F0A840C860486820F4204054
:109060004860886840F07C4088602046FFF7B2FF87
:10907000204610BD506F736974696F6E53776974C1
:1090800063680000303802400010024004464FF090
:10909000800B71480078C00709D16F4802F0BEF814
:1090A00028B16E4800F0AAFC6B48AFF300806B4813
:1090B00000F074FC05464FF0000869480078C007CE
:1090C00009D1674802F0AAF828B1664801F098FE75
:1090D0006348AFF30080634801F056FE8246624861
:1090E0000078C00709D1604802F098F828B15F48BD
:1090F00001F0FAFF5C48AFF300805C4801F0B8FF74
:1091000081465B480078C00709D1594802F086F8CB
:1091100028B15848FFF786FF5548AFF300805548FF
:10912000FFF758FF0746800606D501F05FF9524A5F
:10913000A2F800B0002106E001F058F94E4A921C56
:10914000A2F800B0012100F54050002680F850112F
:10915000B4F88602B84215D0A4F88672012600F051
:1091600089FF8821FEF7B9FEA9B2FEF7A4FE514699
:10917000FEF7A1FE4946FEF79EFE3946FEF794FE35
:10918000FEF74EFEB4F88212514502D0A4F882A236
:109190000126B4F88412494502D0A4F8849201262D
:1091A000B4F88002A84202D0A4F88052012601F04F
:1091B0001DF900F5405090F85001304212D001F0F6
:1091C00015F98821FEF789FEA9B2FEF774FE514613
:1091D000FEF771FE4946FEF76EFE3946FEF764FE65
:1091E000FEF71EFE4FF4FA70FCF71AF908F10108B9
:1091F000B8F10A0FFFF461AF00F03CFF8821FEF7E1
:109200006CFEA9B2FEF757FE5146FEF754FE4946E2
:10921000FEF751FE3946FEF747FEFEF701FE01F06C
:10922000E5F800F5405090F8500100283FF431AFC8
:1092300001F0DCF88821FEF750FEA9B2FEF73BFEF4
:109240005146FEF738FE4946FEF735FE3946FEF731
:109250002BFEFEF7E5FD1CE75414002058140020F7
:1092600070140020C89E002074140020209F00204D
:109270003C14002000490020180C024008B52821A9
:1092800000914FF4007300F1800203A100F0F6F8A2
:109290000349016008BD00005374617475730000D8
:1092A00010B500082E48D4B00078C00709D12C486A
:1092B00001F0B4FF28B12B4800F0F2FE2848AFF3CC
:1092C00000802948274C0078C00709D1264801F0C2
:1092D000A5FF28B1254800F0EDFB2348AFF300803F
:1092E0002348224E0078C00709D1214801F096FF9B
:1092F00028B1204801F090F81D48AFF300801D4DC3
:10930000684600F0FDF81C4901601CA800F0F8F860
:109310001A49016038A800F0F3F8194948341035AB
:109320004836016020466422694600F07FFF10B98C
:10933000684601F0DAF8304664221CA900F076FF96
:1093400010B91CA800F028FE2846642238A900F0B5
:109350006DFF0028E6D138A8FFF7E6FDE2E7000040
:1093600064140020506200205C14002098500020FB
:1093700068140020386D00208CB5000860B5000826
:10938000FCB4000808B5282100914FF4806300F177
:10939000800203A100F072F80349016008BD0000DB
:1093A0004D657373616765001CB500080F4C4FF481
:1093B0004065A6144FF4A0574FF400684FF4C0590D
:1093C0004FF4806A258366836420FCF729F827839D
:1093D000A4F81A806420FCF723F8A4F81890A4F8E5
:1093E0001AA06420FCF71CF8ECE700000010024013
:1093F0000E490A6842F010020A600D490A6822F01C
:109400007C720A600A6842F0A8720A60CA6822F098
:109410007C72CA608A6842F07C728A604A6822F470
:10942000E0524A604FF4E0524A83704730380240BD
:10943000001002400446006801682046884700206A
:109440006067FCF78BFF10B50446406FFCF7B0FF78
:109450000020606710BD000010B50446406F10B1D9
:109460002046FFF7F0FF04F1500221460248FCF7C6
:109470007DFF606710BD00003594000830B5094CD1
:10948000039D04600165002100F10804C0E9151482
:109490004424C465C0E91A5101674167C0E9182333
:1094A00030BD000028B500081148016841F00801EE
:1094B00001601048016821F0C0010160016841F0BD
:1094C000400101600B480830016841F0C0010160B3
:1094D000001D016821F0C00101600648001D0168FF
:1094E00021F0080101600349082018310880704705
:1094F00030380240000C024070477047704700004F
:1095000002490160002141608160704734B5000864
:109510001B48016841F0110101601A48016821F0FF
:10952000C0010160016841F080010160C16821F063
:10953000C001C160816841F0C0018160416821F0D3
:1095400008014160016A21F470410162016A41F43D
:10955000405101620C48016821F4704101600168CA
:1095600041F4A0410160C16821F47041C16081688B
:1095700041F470418160416821F0C0014160704751
:109580003038024000000240001002400B480168E1
:1095900041F4803101600A48002101808180A721C7
:1095A00001856321C162642181634FF4C04101835D
:1095B00010210184012101808182704744380240DA
:1095C000004001401648016841F00801016015485B
:1095D000016821F040710160016841F00071016093
:1095E00010480C30016821F040710160016841F0C1
:1095F00080710160001F016841F040710160001F2F
:10960000016821F48051016006482430016821F48A
:1096100070210160016841F4003101607047000071
:1096200030380240000C02400C48016841F004014F
:1096300001600B49002008800A1D10805720121D70
:1096400010800748F1221830028005482030028837
:1096500022F00A0202800120088070474038024050
:10966000000800402DE9F04791468846824600F008
:1096700053F800283CD1FFF7C9FBFFF7A5FB1F4EAD
:10968000002030600546044630681D490027C1F8B7
:1096900038800121504600F0ADF8B04611E01420AA
:1096A000FBF7BEFED8F80000641C143586B2192CF6
:1096B00007D90024BE4203D1FFF7A8FBFFF784FBC4
:1096C0003746504600F028F808B94D45E7D3032146
:1096D000504600F08FF8D8F8000084B200F0D4F9BA
:1096E000224608A1FEF7CFFB504600F015F810B156
:1096F0000020BDE8F0870120FBE7000024080040BF
:10970000004001406F70656E20636F756E74657206
:109710003D25640D0A00000010B5FFF745FCFFF77A
:1097200059FC40F34000401C10BD00002DE9F047FB
:1097300091468846824600F053F800283CD1FFF756
:1097400065FBFFF741FB1F4E0020306004460746D3
:1097500030681D490025C1F838800221504600F0CC
:1097600049F8B04611E01420FBF75AFED8F8000083
:10977000641C143586B20A2C07D90024BE4203D1DA
:10978000FFF744FBFFF720FB3746504600F028F870
:1097900008B94D45E7D30321504600F02BF8D8F81F
:1097A000000084B200F070F9224608A1FEF76BFBBE
:1097B000504600F015F810B10020BDE8F0870120F8
:1097C000FBE700002408004000400140636C6F7319
:1097D0006520636F756E7465723D25640D0A000027
:1097E00010B5FFF7E1FBFFF7F5FB40F38000401CED
:1097F00010BD000040230948802201290AD0022917
:1098000005D0C022032906D0042902D103E04383F6
:1098100002837047038342837047000000100240B8
:10982000084810B50078C00709D1064801F0F6FCD9
:1098300028B1054800F00AF80248AFF3008002485A
:1098400010BD0000501400204050002010B50AA1A7
:1098500000F016F80446FFF75BFE2046FFF796FE81
:109860002046FFF7AFFE2046FFF7DEFE032120462D
:10987000FFF7C0FF204610BD4672696467650000AF
:1098800010B504460820C4E9011004F11800E06096
:109890001C202061201DFBF719FF2060204610BD11
:1098A0002DE9F04100240C4E0D460227E80777838E
:1098B00005D0022000F0F6FC37835A2004E05A203D
:1098C00000F0F0FC3783022000F0ECFC6D08641C13
:1098D000082CEBD3BDE8F0810010024070B50024E5
:1098E000104D04E0641CE4B2012000F0DBFC2869A8
:1098F000800702D5C82CF5D310E0C82C0ED2002466
:1099000004E0641CE4B2012000F0CCFC286980076C
:1099100002D4F02CF5D301E0F02C01D3002070BD6F
:10992000012070BD0010024070B5064C0225658311
:1099300040F2EE2000F0B6FC2583BDE870400F2019
:1099400000F0B0BC0010024010B50446FFF7ECFF79
:109950002046FFF7C3FFCC212046FFF7A1FF20469A
:10996000BDE810404421FFF79BBF000070B50A4CD2
:1099700002256583284600F095FC25830C2000F025
:1099800091FC2069800701D5012400E000243220E9
:1099900000F088FC204670BD0010024070B50446FF
:1099A000FFF7D2FF2046FFF7BFFF2046FFF796FFE5
:1099B00088B1CC212046FFF773FFBE212046FFF778
:1099C0006FFF204600F00AF80546204600F006F832
:1099D00005EB002070BD4FF4803070BD70B50024E1
:1099E0000646254664083046FFF7C0FF08B144F03C
:1099F00080046D1C082DF5D3204670BD10490A68FF
:109A000042F010020A600F490A6822F00C020A6054
:109A10000A6842F004020A604A6842F002024A60A0
:109A20008A6842F00C028A60CA6822F00C02CA609E
:109A3000CA6842F00402CA6002220A83704700002A
:109A4000303802400010024070B50D4606461446FC
:109A500000694FF0FF31FBF715FE04E0297830462E
:109A600000F00AF86D1C641EA4B2F7D23069BDE89C
:109A70007040FBF74DBE0000024802881206FCD57C
:109A80008180704700500040084810B50078C0073A
:109A900009D1064801F0C2FB28B1054800F00AF8D8
:109AA0000248AFF30080024810BD00005C140020A3
:109AB0009850002038B548A11030FFF7E1FE14217E
:109AC00000F190020091702343A1383000F0B3FB05
:109AD00000F6586140F8441C414A404940F8481D8E
